{
  "contractName": "ConnectFour",
  "abi": [
    {
      "constant": true,
      "inputs": [
        {
          "name": "",
          "type": "uint256"
        }
      ],
      "name": "games",
      "outputs": [
        {
          "name": "bid",
          "type": "uint256"
        },
        {
          "name": "lastTimePlayed",
          "type": "uint256"
        },
        {
          "name": "playerOneRed",
          "type": "address"
        },
        {
          "name": "playerTwoBlack",
          "type": "address"
        },
        {
          "name": "whoseTurn",
          "type": "uint8"
        },
        {
          "name": "restricted",
          "type": "bool"
        },
        {
          "name": "isStarted",
          "type": "bool"
        },
        {
          "name": "gameOver",
          "type": "bool"
        }
      ],
      "payable": false,
      "stateMutability": "view",
      "type": "function"
    },
    {
      "constant": false,
      "inputs": [],
      "name": "withdrawPayments",
      "outputs": [],
      "payable": false,
      "stateMutability": "nonpayable",
      "type": "function"
    },
    {
      "constant": true,
      "inputs": [
        {
          "name": "_dest",
          "type": "address"
        }
      ],
      "name": "payments",
      "outputs": [
        {
          "name": "",
          "type": "uint256"
        }
      ],
      "payable": false,
      "stateMutability": "view",
      "type": "function"
    },
    {
      "constant": true,
      "inputs": [],
      "name": "moveTimeout",
      "outputs": [
        {
          "name": "",
          "type": "uint256"
        }
      ],
      "payable": false,
      "stateMutability": "view",
      "type": "function"
    },
    {
      "inputs": [
        {
          "name": "timeout",
          "type": "uint256"
        }
      ],
      "payable": false,
      "stateMutability": "nonpayable",
      "type": "constructor"
    },
    {
      "payable": false,
      "stateMutability": "nonpayable",
      "type": "fallback"
    },
    {
      "anonymous": false,
      "inputs": [
        {
          "indexed": false,
          "name": "gameId",
          "type": "uint256"
        },
        {
          "indexed": false,
          "name": "restricted",
          "type": "bool"
        }
      ],
      "name": "logGameCreated",
      "type": "event"
    },
    {
      "anonymous": false,
      "inputs": [
        {
          "indexed": false,
          "name": "gameId",
          "type": "uint256"
        }
      ],
      "name": "logGameStart",
      "type": "event"
    },
    {
      "anonymous": false,
      "inputs": [
        {
          "indexed": false,
          "name": "gameId",
          "type": "uint256"
        },
        {
          "indexed": false,
          "name": "who",
          "type": "uint8"
        },
        {
          "indexed": false,
          "name": "position",
          "type": "uint8"
        }
      ],
      "name": "logMoveMade",
      "type": "event"
    },
    {
      "anonymous": false,
      "inputs": [
        {
          "indexed": false,
          "name": "gameId",
          "type": "uint256"
        },
        {
          "indexed": false,
          "name": "winner",
          "type": "address"
        }
      ],
      "name": "logGameEnd",
      "type": "event"
    },
    {
      "anonymous": false,
      "inputs": [
        {
          "indexed": false,
          "name": "gameId",
          "type": "uint256"
        }
      ],
      "name": "logGameCancel",
      "type": "event"
    },
    {
      "constant": false,
      "inputs": [],
      "name": "createNewGame",
      "outputs": [],
      "payable": true,
      "stateMutability": "payable",
      "type": "function"
    },
    {
      "constant": false,
      "inputs": [
        {
          "name": "playerTwo",
          "type": "address"
        }
      ],
      "name": "createNewRestrictedGame",
      "outputs": [],
      "payable": true,
      "stateMutability": "payable",
      "type": "function"
    },
    {
      "constant": false,
      "inputs": [
        {
          "name": "gameId",
          "type": "uint256"
        }
      ],
      "name": "joinGame",
      "outputs": [],
      "payable": true,
      "stateMutability": "payable",
      "type": "function"
    },
    {
      "constant": false,
      "inputs": [
        {
          "name": "gameId",
          "type": "uint256"
        }
      ],
      "name": "cancelCreatedGame",
      "outputs": [],
      "payable": false,
      "stateMutability": "nonpayable",
      "type": "function"
    },
    {
      "constant": false,
      "inputs": [
        {
          "name": "gameId",
          "type": "uint256"
        }
      ],
      "name": "forfeit",
      "outputs": [],
      "payable": false,
      "stateMutability": "nonpayable",
      "type": "function"
    },
    {
      "constant": false,
      "inputs": [
        {
          "name": "gameId",
          "type": "uint256"
        }
      ],
      "name": "claimTimeoutVictory",
      "outputs": [],
      "payable": false,
      "stateMutability": "nonpayable",
      "type": "function"
    },
    {
      "constant": false,
      "inputs": [
        {
          "name": "gameId",
          "type": "uint256"
        },
        {
          "name": "moveToMake",
          "type": "uint8"
        },
        {
          "name": "claim",
          "type": "uint8[4]"
        }
      ],
      "name": "makeMoveAndClaimVictory",
      "outputs": [],
      "payable": false,
      "stateMutability": "nonpayable",
      "type": "function"
    },
    {
      "constant": false,
      "inputs": [
        {
          "name": "gameId",
          "type": "uint256"
        },
        {
          "name": "position",
          "type": "uint8"
        }
      ],
      "name": "makeMove",
      "outputs": [],
      "payable": false,
      "stateMutability": "nonpayable",
      "type": "function"
    },
    {
      "constant": true,
      "inputs": [
        {
          "name": "gameId",
          "type": "uint256"
        },
        {
          "name": "who",
          "type": "uint8"
        },
        {
          "name": "moves",
          "type": "uint8[4]"
        }
      ],
      "name": "checkHasWon",
      "outputs": [
        {
          "name": "",
          "type": "bool"
        }
      ],
      "payable": false,
      "stateMutability": "view",
      "type": "function"
    },
    {
      "constant": true,
      "inputs": [
        {
          "name": "gameId",
          "type": "uint256"
        }
      ],
      "name": "getBid",
      "outputs": [
        {
          "name": "",
          "type": "uint256"
        }
      ],
      "payable": false,
      "stateMutability": "view",
      "type": "function"
    },
    {
      "constant": true,
      "inputs": [
        {
          "name": "gameId",
          "type": "uint256"
        }
      ],
      "name": "getLastTimePlayed",
      "outputs": [
        {
          "name": "",
          "type": "uint256"
        }
      ],
      "payable": false,
      "stateMutability": "view",
      "type": "function"
    },
    {
      "constant": true,
      "inputs": [
        {
          "name": "gameId",
          "type": "uint256"
        }
      ],
      "name": "getPlayerOne",
      "outputs": [
        {
          "name": "",
          "type": "address"
        }
      ],
      "payable": false,
      "stateMutability": "view",
      "type": "function"
    },
    {
      "constant": true,
      "inputs": [
        {
          "name": "gameId",
          "type": "uint256"
        }
      ],
      "name": "getPlayerTwo",
      "outputs": [
        {
          "name": "",
          "type": "address"
        }
      ],
      "payable": false,
      "stateMutability": "view",
      "type": "function"
    },
    {
      "constant": true,
      "inputs": [
        {
          "name": "gameId",
          "type": "uint256"
        }
      ],
      "name": "getBoard",
      "outputs": [
        {
          "name": "",
          "type": "uint8[42]"
        }
      ],
      "payable": false,
      "stateMutability": "view",
      "type": "function"
    },
    {
      "constant": true,
      "inputs": [
        {
          "name": "gameId",
          "type": "uint256"
        }
      ],
      "name": "getWhoseTurn",
      "outputs": [
        {
          "name": "",
          "type": "uint8"
        }
      ],
      "payable": false,
      "stateMutability": "view",
      "type": "function"
    },
    {
      "constant": true,
      "inputs": [
        {
          "name": "gameId",
          "type": "uint256"
        }
      ],
      "name": "getRestricted",
      "outputs": [
        {
          "name": "",
          "type": "bool"
        }
      ],
      "payable": false,
      "stateMutability": "view",
      "type": "function"
    },
    {
      "constant": true,
      "inputs": [
        {
          "name": "gameId",
          "type": "uint256"
        }
      ],
      "name": "getIsStarted",
      "outputs": [
        {
          "name": "",
          "type": "bool"
        }
      ],
      "payable": false,
      "stateMutability": "view",
      "type": "function"
    },
    {
      "constant": true,
      "inputs": [
        {
          "name": "gameId",
          "type": "uint256"
        }
      ],
      "name": "getGameOver",
      "outputs": [
        {
          "name": "",
          "type": "bool"
        }
      ],
      "payable": false,
      "stateMutability": "view",
      "type": "function"
    }
  ],
  "bytecode": "0x608060405234801561001057600080fd5b50604051602080620029c88339810180604052810190808051906020019092919050505061003c6100a5565b604051809103906000f080158015610058573d6000803e3d6000fd5b506000806101000a81548173ffffffffffffffffffffffffffffffffffffffff021916908373ffffffffffffffffffffffffffffffffffffffff16021790555080600181905550506100b6565b604051610851806200217783390190565b6120b180620000c66000396000f300608060405260043610610128576000357c0100000000000000000000000000000000000000000000000000000000900463ffffffff1680630628b6ba1461013a578063117a5b901461017b578063224bbbac1461025f5780633c889e6f146102a35780633d412d0f146102e45780633ed546ab1461035157806345e09e541461037e5780635e0d8a26146103e75780636103d70b1461042c5780637e24c66b146104435780637fd6f7c41461048857806385870dcf146104c25780639e693e5d146104f8578063a100724c1461053d578063a960f05b1461058c578063b153ac55146105f9578063bfd2b62814610626578063e2982c21146106a7578063eb87eb5e146106fe578063efaa55a014610708578063eff53a6914610728578063fdb894ac14610755575b34801561013457600080fd5b50600080fd5b34801561014657600080fd5b5061016560048036038101908080359060200190929190505050610780565b6040518082815260200191505060405180910390f35b34801561018757600080fd5b506101a6600480360381019080803590602001909291905050506107a0565b604051808981526020018881526020018773ffffffffffffffffffffffffffffffffffffffff1673ffffffffffffffffffffffffffffffffffffffff1681526020018673ffffffffffffffffffffffffffffffffffffffff1673ffffffffffffffffffffffffffffffffffffffff16815260200185600281111561022657fe5b60ff1681526020018415151515815260200183151515158152602001821515151581526020019850505050505050505060405180910390f35b34801561026b57600080fd5b506102a160048036038101908080359060200190929190803560ff1690602001909291908060800190919291929050505061085c565b005b3480156102af57600080fd5b506102ce60048036038101908080359060200190929190505050610988565b6040518082815260200191505060405180910390f35b3480156102f057600080fd5b5061030f600480360381019080803590602001909291905050506109a8565b604051808273ffffffffffffffffffffffffffffffffffffffff1673ffffffffffffffffffffffffffffffffffffffff16815260200191505060405180910390f35b34801561035d57600080fd5b5061037c600480360381019080803590602001909291905050506109e8565b005b34801561038a57600080fd5b506103a960048036038101908080359060200190929190505050610c8b565b6040518082602a60200280838360005b838110156103d45780820151818401526020810190506103b9565b5050505090500191505060405180910390f35b3480156103f357600080fd5b5061041260048036038101908080359060200190929190505050610d1a565b604051808215151515815260200191505060405180910390f35b34801561043857600080fd5b50610441610d47565b005b34801561044f57600080fd5b5061046e60048036038101908080359060200190929190505050610e23565b604051808215151515815260200191505060405180910390f35b34801561049457600080fd5b506104c060048036038101908080359060200190929190803560ff169060200190929190505050610e50565b005b6104f6600480360381019080803573ffffffffffffffffffffffffffffffffffffffff169060200190929190505050611153565b005b34801561050457600080fd5b506105236004803603810190808035906020019092919050505061122b565b604051808215151515815260200191505060405180910390f35b34801561054957600080fd5b5061056860048036038101908080359060200190929190505050611258565b6040518082600281111561057857fe5b60ff16815260200191505060405180910390f35b34801561059857600080fd5b506105b760048036038101908080359060200190929190505050611285565b604051808273ffffffffffffffffffffffffffffffffffffffff1673ffffffffffffffffffffffffffffffffffffffff16815260200191505060405180910390f35b34801561060557600080fd5b50610624600480360381019080803590602001909291905050506112c5565b005b34801561063257600080fd5b5061068d60048036038101908080359060200190929190803560ff16906020019092919080608001906004806020026040519081016040528092919082600460200280828437820191505050505091929192905050506114ac565b604051808215151515815260200191505060405180910390f35b3480156106b357600080fd5b506106e8600480360381019080803573ffffffffffffffffffffffffffffffffffffffff16906020019092919050505061176e565b6040518082815260200191505060405180910390f35b61070661186e565b005b61072660048036038101908080359060200190929190505050611886565b005b34801561073457600080fd5b5061075360048036038101908080359060200190929190505050611b31565b005b34801561076157600080fd5b5061076a611c12565b6040518082815260200191505060405180910390f35b600060036000838152602001908152602001600020600101549050919050565b60036020528060005260406000206000915090508060000154908060010154908060020160009054906101000a900473ffffffffffffffffffffffffffffffffffffffff16908060030160009054906101000a900473ffffffffffffffffffffffffffffffffffffffff16908060030160149054906101000a900460ff16908060030160159054906101000a900460ff16908060030160169054906101000a900460ff16908060030160179054906101000a900460ff16905088565b6000808461086981611c18565b73ffffffffffffffffffffffffffffffffffffffff163373ffffffffffffffffffffffffffffffffffffffff161415156108a257600080fd5b856003600082815260200190815260200160002060030160169054906101000a900460ff1680156108f457506003600082815260200190815260200160002060030160179054906101000a900460ff16155b15156108ff57600080fd5b6003600088815260200190815260200160002060030160149054906101000a900460ff16935061092e87611c18565b925061093a8787610e50565b61096a878587600480602002604051908101604052809291908260046020028082843782019150505050506114ac565b151561097557600080fd5b61097f8784611d05565b50505050505050565b600060036000838152602001908152602001600020600001549050919050565b60006003600083815260200190815260200160002060030160009054906101000a900473ffffffffffffffffffffffffffffffffffffffff169050919050565b806003600082815260200190815260200160002060030160169054906101000a900460ff168015610a3a57506003600082815260200190815260200160002060030160179054906101000a900460ff16155b1515610a4557600080fd5b816003600082815260200190815260200160002060020160009054906101000a900473ffffffffffffffffffffffffffffffffffffffff1673ffffffffffffffffffffffffffffffffffffffff163373ffffffffffffffffffffffffffffffffffffffff161480610b1757506003600082815260200190815260200160002060030160009054906101000a900473ffffffffffffffffffffffffffffffffffffffff1673ffffffffffffffffffffffffffffffffffffffff163373ffffffffffffffffffffffffffffffffffffffff16145b1515610b2257600080fd5b6003600084815260200190815260200160002060020160009054906101000a900473ffffffffffffffffffffffffffffffffffffffff1673ffffffffffffffffffffffffffffffffffffffff163373ffffffffffffffffffffffffffffffffffffffff161415610bd157610bcc836003600086815260200190815260200160002060030160009054906101000a900473ffffffffffffffffffffffffffffffffffffffff16611d05565b610c86565b6003600084815260200190815260200160002060030160009054906101000a900473ffffffffffffffffffffffffffffffffffffffff1673ffffffffffffffffffffffffffffffffffffffff163373ffffffffffffffffffffffffffffffffffffffff161415610c8057610c7b836003600086815260200190815260200160002060020160009054906101000a900473ffffffffffffffffffffffffffffffffffffffff16611d05565b610c85565b600080fd5b5b505050565b610c93612061565b60036000838152602001908152602001600020600401602a806020026040519081016040528092919082602a8015610d0e576020028201916000905b82829054906101000a900460ff166002811115610ce857fe5b81526020019060010190602082600001049283019260010382029150808411610ccf5790505b50505050509050919050565b60006003600083815260200190815260200160002060030160179054906101000a900460ff169050919050565b60003390506000809054906101000a900473ffffffffffffffffffffffffffffffffffffffff1673ffffffffffffffffffffffffffffffffffffffff166351cff8d9826040518263ffffffff167c0100000000000000000000000000000000000000000000000000000000028152600401808273ffffffffffffffffffffffffffffffffffffffff1673ffffffffffffffffffffffffffffffffffffffff168152602001915050600060405180830381600087803b158015610e0857600080fd5b505af1158015610e1c573d6000803e3d6000fd5b5050505050565b60006003600083815260200190815260200160002060030160169054906101000a900460ff169050919050565b600082610e5c81611c18565b73ffffffffffffffffffffffffffffffffffffffff163373ffffffffffffffffffffffffffffffffffffffff16141515610e9557600080fd5b836003600082815260200190815260200160002060030160169054906101000a900460ff168015610ee757506003600082815260200190815260200160002060030160179054906101000a900460ff16155b1515610ef257600080fd5b6003600086815260200190815260200160002060030160149054906101000a900460ff16925060008460ff1610158015610f30575060298460ff1611155b1515610f3b57600080fd5b60006002811115610f4857fe5b600360008781526020019081526020016000206004018560ff16602a81101515610f6e57fe5b602091828204019190069054906101000a900460ff166002811115610f8f57fe5b141515610f9b57600080fd5b60078460ff1610151561100d5760006002811115610fb557fe5b600360008781526020019081526020016000206004016007860360ff16602a81101515610fde57fe5b602091828204019190069054906101000a900460ff166002811115610fff57fe5b1415151561100c57600080fd5b5b82600360008781526020019081526020016000206004018560ff16602a8110151561103457fe5b602091828204019190066101000a81548160ff0219169083600281111561105757fe5b02179055506001600281111561106957fe5b83600281111561107557fe5b14156110b85760026003600087815260200190815260200160002060030160146101000a81548160ff021916908360028111156110ae57fe5b02179055506110f1565b60016003600087815260200190815260200160002060030160146101000a81548160ff021916908360028111156110eb57fe5b02179055505b7f524366571c14a79b0a13271deb2f90e50a95e86fe8f069fbedcf8a9ad5441ea08584866040518084815260200183600281111561112b57fe5b60ff1681526020018260ff1660ff168152602001935050505060405180910390a15050505050565b60003373ffffffffffffffffffffffffffffffffffffffff168273ffffffffffffffffffffffffffffffffffffffff161415151561119057600080fd5b611198611dcc565b905060016003600083815260200190815260200160002060030160156101000a81548160ff021916908315150217905550816003600083815260200190815260200160002060030160006101000a81548173ffffffffffffffffffffffffffffffffffffffff021916908373ffffffffffffffffffffffffffffffffffffffff16021790555061122781611de4565b5050565b60006003600083815260200190815260200160002060030160159054906101000a900460ff169050919050565b60006003600083815260200190815260200160002060030160149054906101000a900460ff169050919050565b60006003600083815260200190815260200160002060020160009054906101000a900473ffffffffffffffffffffffffffffffffffffffff169050919050565b8060006003600083815260200190815260200160002060020160009054906101000a900473ffffffffffffffffffffffffffffffffffffffff1673ffffffffffffffffffffffffffffffffffffffff161415151561132257600080fd5b816003600082815260200190815260200160002060030160169054906101000a900460ff1615801561137557506003600082815260200190815260200160002060030160179054906101000a900460ff16155b151561138057600080fd5b826003600082815260200190815260200160002060020160009054906101000a900473ffffffffffffffffffffffffffffffffffffffff1673ffffffffffffffffffffffffffffffffffffffff163373ffffffffffffffffffffffffffffffffffffffff161415156113f157600080fd5b60016003600086815260200190815260200160002060030160166101000a81548160ff02191690831515021790555060016003600086815260200190815260200160002060030160176101000a81548160ff02191690831515021790555061146f336003600087815260200190815260200160002060000154611e9b565b7f205fbe38a5a5dba05069ab167682b12bbeabc051d0d6ee955ec20568107472ca846040518082815260200191505060405180910390a150505050565b60008060008091505b60048260ff16101561158f576000848360ff166004811015156114d457fe5b602002015160ff161015801561150357506029848360ff166004811015156114f857fe5b602002015160ff1611155b151561150e57600080fd5b84600281111561151a57fe5b60036000888152602001908152602001600020600401858460ff1660048110151561154157fe5b602002015160ff16602a8110151561155557fe5b602091828204019190069054906101000a900460ff16600281111561157657fe5b14151561158257600080fd5b81806001019250506114b5565b83600160048110151561159e57fe5b602002015160ff168460006004811015156115b557fe5b602002015160ff161015156115c957600080fd5b8360006004811015156115d857fe5b60200201518460016004811015156115ec57fe5b60200201510390508060ff1684600160048110151561160757fe5b602002015185600260048110151561161b57fe5b60200201510360ff1614801561165e57508060ff1684600260048110151561163f57fe5b602002015185600360048110151561165357fe5b60200201510360ff16145b151561166957600080fd5b60018160ff16148061167e575060088160ff16145b156116e057600784600360048110151561169457fe5b602002015160ff168115156116a557fe5b0660ff1660078560006004811015156116ba57fe5b602002015160ff168115156116cb57fe5b0660ff161015156116db57600080fd5b611761565b60068160ff1614156117495760078460006004811015156116fd57fe5b602002015160ff1681151561170e57fe5b0660ff16600785600360048110151561172357fe5b602002015160ff1681151561173457fe5b0660ff1610151561174457600080fd5b611760565b60078160ff16141561175a5761175f565b600080fd5b5b5b6001925050509392505050565b60008060009054906101000a900473ffffffffffffffffffffffffffffffffffffffff1673ffffffffffffffffffffffffffffffffffffffff1663e3a9db1a836040518263ffffffff167c0100000000000000000000000000000000000000000000000000000000028152600401808273ffffffffffffffffffffffffffffffffffffffff1673ffffffffffffffffffffffffffffffffffffffff168152602001915050602060405180830381600087803b15801561182c57600080fd5b505af1158015611840573d6000803e3d6000fd5b505050506040513d602081101561185657600080fd5b81019080805190602001909291905050509050919050565b6000611878611dcc565b905061188381611de4565b50565b8060006003600083815260200190815260200160002060020160009054906101000a900473ffffffffffffffffffffffffffffffffffffffff1673ffffffffffffffffffffffffffffffffffffffff16141515156118e357600080fd5b816003600082815260200190815260200160002060030160169054906101000a900460ff1615801561193657506003600082815260200190815260200160002060030160179054906101000a900460ff16155b151561194157600080fd5b3373ffffffffffffffffffffffffffffffffffffffff1661196184611285565b73ffffffffffffffffffffffffffffffffffffffff161415151561198457600080fd5b61198d83610988565b3414151561199a57600080fd5b6119a38361122b565b15611a1d573373ffffffffffffffffffffffffffffffffffffffff166003600085815260200190815260200160002060030160009054906101000a900473ffffffffffffffffffffffffffffffffffffffff1673ffffffffffffffffffffffffffffffffffffffff16141515611a1857600080fd5b611a73565b336003600085815260200190815260200160002060030160006101000a81548173ffffffffffffffffffffffffffffffffffffffff021916908373ffffffffffffffffffffffffffffffffffffffff1602179055505b42600360008581526020019081526020016000206001018190555060016003600085815260200190815260200160002060030160166101000a81548160ff02191690831515021790555060016003600085815260200190815260200160002060030160146101000a81548160ff02191690836002811115611af057fe5b02179055507fb67b12ea4e48bdaf33fea4567f20c1b9d1e570f99cfbe8b3c359d2e1ac352dca836040518082815260200191505060405180910390a1505050565b8060015460036000838152602001908152602001600020600101540142111515611b5a57600080fd5b81611b6481611f74565b73ffffffffffffffffffffffffffffffffffffffff163373ffffffffffffffffffffffffffffffffffffffff16141515611b9d57600080fd5b826003600082815260200190815260200160002060030160169054906101000a900460ff168015611bef57506003600082815260200190815260200160002060030160179054906101000a900460ff16155b1515611bfa57600080fd5b611c0c84611c0786611f74565b611d05565b50505050565b60015481565b6000806003600084815260200190815260200160002060030160149054906101000a900460ff16905060016002811115611c4e57fe5b816002811115611c5a57fe5b1415611c9e576003600084815260200190815260200160002060020160009054906101000a900473ffffffffffffffffffffffffffffffffffffffff169150611cff565b600280811115611caa57fe5b816002811115611cb657fe5b1415611cfa576003600084815260200190815260200160002060030160009054906101000a900473ffffffffffffffffffffffffffffffffffffffff169150611cff565b600080fd5b50919050565b600060016003600085815260200190815260200160002060030160176101000a81548160ff02191690831515021790555060026003600085815260200190815260200160002060000154029050611d5c8282611e9b565b7f2799f7db9b662090ba734216b411a1786edb43fd4d384f1eb7f332e824347bf98383604051808381526020018273ffffffffffffffffffffffffffffffffffffffff1673ffffffffffffffffffffffffffffffffffffffff1681526020019250505060405180910390a1505050565b60006002600081548092919060010191905055905090565b346003600083815260200190815260200160002060000181905550336003600083815260200190815260200160002060020160006101000a81548173ffffffffffffffffffffffffffffffffffffffff021916908373ffffffffffffffffffffffffffffffffffffffff1602179055507feaf0b95c5849c1d74de24977c84c7991623dd2d4645913aa4dc5866d53a0b14581600060405180838152602001821515151581526020019250505060405180910390a150565b6000809054906101000a900473ffffffffffffffffffffffffffffffffffffffff1673ffffffffffffffffffffffffffffffffffffffff1663f340fa0182846040518363ffffffff167c0100000000000000000000000000000000000000000000000000000000028152600401808273ffffffffffffffffffffffffffffffffffffffff1673ffffffffffffffffffffffffffffffffffffffff1681526020019150506000604051808303818588803b158015611f5757600080fd5b505af1158015611f6b573d6000803e3d6000fd5b50505050505050565b6000806003600084815260200190815260200160002060030160149054906101000a900460ff16905060016002811115611faa57fe5b816002811115611fb657fe5b1415611ffa576003600084815260200190815260200160002060030160009054906101000a900473ffffffffffffffffffffffffffffffffffffffff16915061205b565b60028081111561200657fe5b81600281111561201257fe5b1415612056576003600084815260200190815260200160002060020160009054906101000a900473ffffffffffffffffffffffffffffffffffffffff16915061205b565b600080fd5b50919050565b61054060405190810160405280602a906020820280388339808201915050905050905600a165627a7a72305820b06c7c233f0f3ed7d7ed5eca7993b391928934af19025675940063611edcc91800296080604052336000806101000a81548173ffffffffffffffffffffffffffffffffffffffff021916908373ffffffffffffffffffffffffffffffffffffffff1602179055506107fe806100536000396000f300608060405260043610610078576000357c0100000000000000000000000000000000000000000000000000000000900463ffffffff16806351cff8d91461007d578063715018a6146100c05780638da5cb5b146100d7578063e3a9db1a1461012e578063f2fde38b14610185578063f340fa01146101c8575b600080fd5b34801561008957600080fd5b506100be600480360381019080803573ffffffffffffffffffffffffffffffffffffffff1690602001909291905050506101fe565b005b3480156100cc57600080fd5b506100d561039e565b005b3480156100e357600080fd5b506100ec6104a0565b604051808273ffffffffffffffffffffffffffffffffffffffff1673ffffffffffffffffffffffffffffffffffffffff16815260200191505060405180910390f35b34801561013a57600080fd5b5061016f600480360381019080803573ffffffffffffffffffffffffffffffffffffffff1690602001909291905050506104c5565b6040518082815260200191505060405180910390f35b34801561019157600080fd5b506101c6600480360381019080803573ffffffffffffffffffffffffffffffffffffffff16906020019092919050505061050e565b005b6101fc600480360381019080803573ffffffffffffffffffffffffffffffffffffffff169060200190929190505050610575565b005b60008060009054906101000a900473ffffffffffffffffffffffffffffffffffffffff1673ffffffffffffffffffffffffffffffffffffffff163373ffffffffffffffffffffffffffffffffffffffff1614151561025b57600080fd5b600160008373ffffffffffffffffffffffffffffffffffffffff1673ffffffffffffffffffffffffffffffffffffffff168152602001908152602001600020549050803073ffffffffffffffffffffffffffffffffffffffff1631101515156102c057fe5b6000600160008473ffffffffffffffffffffffffffffffffffffffff1673ffffffffffffffffffffffffffffffffffffffff168152602001908152602001600020819055508173ffffffffffffffffffffffffffffffffffffffff166108fc829081150290604051600060405180830381858888f1935050505015801561034b573d6000803e3d6000fd5b508173ffffffffffffffffffffffffffffffffffffffff167f7084f5476618d8e60b11ef0d7d3f06914655adb8793e28ff7f018d4c76d505d5826040518082815260200191505060405180910390a25050565b6000809054906101000a900473ffffffffffffffffffffffffffffffffffffffff1673ffffffffffffffffffffffffffffffffffffffff163373ffffffffffffffffffffffffffffffffffffffff161415156103f957600080fd5b6000809054906101000a900473ffffffffffffffffffffffffffffffffffffffff1673ffffffffffffffffffffffffffffffffffffffff167ff8df31144d9c2f0f6b59d69b8b98abd5459d07f2742c4df920b25aae33c6482060405160405180910390a260008060006101000a81548173ffffffffffffffffffffffffffffffffffffffff021916908373ffffffffffffffffffffffffffffffffffffffff160217905550565b6000809054906101000a900473ffffffffffffffffffffffffffffffffffffffff1681565b6000600160008373ffffffffffffffffffffffffffffffffffffffff1673ffffffffffffffffffffffffffffffffffffffff168152602001908152602001600020549050919050565b6000809054906101000a900473ffffffffffffffffffffffffffffffffffffffff1673ffffffffffffffffffffffffffffffffffffffff163373ffffffffffffffffffffffffffffffffffffffff1614151561056957600080fd5b610572816106bc565b50565b60008060009054906101000a900473ffffffffffffffffffffffffffffffffffffffff1673ffffffffffffffffffffffffffffffffffffffff163373ffffffffffffffffffffffffffffffffffffffff161415156105d257600080fd5b34905061062781600160008573ffffffffffffffffffffffffffffffffffffffff1673ffffffffffffffffffffffffffffffffffffffff168152602001908152602001600020546107b690919063ffffffff16565b600160008473ffffffffffffffffffffffffffffffffffffffff1673ffffffffffffffffffffffffffffffffffffffff168152602001908152602001600020819055508173ffffffffffffffffffffffffffffffffffffffff167f2da466a7b24304f47e87fa2e1e5a81b9831ce54fec19055ce277ca2f39ba42c4826040518082815260200191505060405180910390a25050565b600073ffffffffffffffffffffffffffffffffffffffff168173ffffffffffffffffffffffffffffffffffffffff16141515156106f857600080fd5b8073ffffffffffffffffffffffffffffffffffffffff166000809054906101000a900473ffffffffffffffffffffffffffffffffffffffff1673ffffffffffffffffffffffffffffffffffffffff167f8be0079c531659141344cd1fd0a4f28419497f9722a3daafe3b4186f6b6457e060405160405180910390a3806000806101000a81548173ffffffffffffffffffffffffffffffffffffffff021916908373ffffffffffffffffffffffffffffffffffffffff16021790555050565b600081830190508281101515156107c957fe5b809050929150505600a165627a7a7230582029f894042014493da461a169c30d38666f77d4c6ddeafdc7fac36ee9f0edc2790029",
  "source": "pragma solidity ^0.4.18;\n\nimport \"../node_modules/openzeppelin-solidity/contracts/payment/PullPayment.sol\";\n//function asyncTransfer(address dest, uint256 amount) internal;\n//function withdrawPayments() public;\n\ncontract ConnectFour is PullPayment {\n\n  enum BoardPiece {NONE, RED, BLACK}\n\n  //Encapsulates total game lead.\n  struct GameState {\n    uint bid; //How much each player bids\n    uint lastTimePlayed; //When was the last move made?\n\n    address playerOneRed;\n    address playerTwoBlack;\n\n    BoardPiece whoseTurn;\n\n    bool restricted;\n    bool isStarted;\n    bool gameOver;\n\n    //Board is 7 columns by 6 rows\n    //0 is the bottom-left corner of the board\n    //1 is the second from the left on the bottom\n    //6 is the bottom-right corner\n    //7 is the left on the second-to-bottom row\n    //41 is the top-right\n    BoardPiece[42] board;\n  }\n\n  event logGameCreated(uint gameId, bool restricted);\n  event logGameStart(uint gameId);\n  event logMoveMade(uint gameId, BoardPiece who, uint8 position);\n  event logGameEnd(uint gameId, address winner);\n  event logGameCancel(uint gameId);\n\n  //How long someone has to move before the other player can claim victory\n  uint public moveTimeout;\n\n  //Counter so each game has a unique ID\n  uint nextID;\n\n  //The state of all the games\n  mapping (uint => GameState) public games;\n\n  modifier onlyGameExists(uint gameId) {\n    require(games[gameId].playerOneRed != 0);\n    _;\n  }\n\n  modifier onlyWhileNotStarted(uint gameId) {\n    require(!games[gameId].isStarted && !games[gameId].gameOver);\n    _;\n  }\n\n  modifier onlyWhilePlaying(uint gameId) {\n    require(games[gameId].isStarted && !games[gameId].gameOver);\n    _;\n  }\n\n  modifier onlyPlayers(uint gameId) {\n    require(msg.sender == games[gameId].playerOneRed\n      || msg.sender == games[gameId].playerTwoBlack);\n      _;\n  }\n\n  //Only the player whose turn it is\n  modifier onlyActivePlayer(uint gameId) {\n    require(msg.sender == getActivePlayer(gameId));\n    _;\n  }\n\n  //Only the player whose turn it isn't\n  modifier onlyInactivePlayer(uint gameId) {\n    require(msg.sender == getInactivePlayer(gameId));\n    _;\n  }\n\n  modifier onlyGameCreator(uint gameId) {\n    require(msg.sender == games[gameId].playerOneRed);\n    _;\n  }\n\n  modifier onlyAfterTimeout(uint gameId) {\n    require(now > games[gameId].lastTimePlayed + moveTimeout);\n    _;\n  }\n\n  constructor(uint timeout) public {\n    moveTimeout = timeout;\n  }\n\n  function() public {\n    revert();\n  }\n\n  //Creates a game with a unique ID. Anyone can join this game.\n  function createNewGame() external payable {\n    uint gameId = createUniqueId();\n    createNewGameEntry(gameId);\n  }\n\n  //Creates a game where only a specified player can join.\n  function createNewRestrictedGame(address playerTwo) external payable {\n    require(playerTwo != msg.sender);\n    uint gameId = createUniqueId();\n    games[gameId].restricted = true;\n    games[gameId].playerTwoBlack = playerTwo;\n    createNewGameEntry(gameId);\n  }\n\n  //Join a game that another person has created.\n  function joinGame(uint gameId) external payable\n    onlyGameExists(gameId)\n    onlyWhileNotStarted(gameId)\n  {\n    require(getPlayerOne(gameId) != msg.sender);\n    require(msg.value == getBid(gameId));\n\n    if (getRestricted(gameId)) {\n      require(games[gameId].playerTwoBlack == msg.sender);\n    } else {\n      games[gameId].playerTwoBlack = msg.sender;\n    }\n\n    games[gameId].lastTimePlayed = now;\n    games[gameId].isStarted = true;\n    games[gameId].whoseTurn = BoardPiece.RED;\n    logGameStart(gameId);\n  }\n\n  //If nobody has joined your game, you can cancel and get money back\n  function cancelCreatedGame(uint gameId)\n    external\n    onlyGameExists(gameId)\n    onlyWhileNotStarted(gameId)\n    onlyGameCreator(gameId)\n  {\n    games[gameId].isStarted = true;\n    games[gameId].gameOver = true;\n\n    asyncTransfer(msg.sender, games[gameId].bid);\n\n    logGameCancel(gameId);\n  }\n\n  function forfeit(uint gameId)\n    external\n    onlyWhilePlaying(gameId)\n    onlyPlayers(gameId)\n  {\n    if (msg.sender == games[gameId].playerOneRed) {\n      gameEnd(gameId, games[gameId].playerTwoBlack);\n    } else if (msg.sender == games[gameId].playerTwoBlack) {\n      gameEnd(gameId, games[gameId].playerOneRed);\n    } else {\n      //This should never happen\n      revert();\n    }\n  }\n\n  function claimTimeoutVictory(uint gameId)\n    external\n    onlyAfterTimeout(gameId)\n    onlyInactivePlayer(gameId)\n    onlyWhilePlaying(gameId)\n  {\n    gameEnd(gameId, getInactivePlayer(gameId));\n  }\n\n  //The pieces in toClaim must be sorted positions, least to greatest\n  function makeMoveAndClaimVictory(uint gameId, uint8 moveToMake, uint8[4] claim)\n    external\n    onlyActivePlayer(gameId)\n    onlyWhilePlaying(gameId)\n  {\n    BoardPiece player = games[gameId].whoseTurn;\n    address playerAddress = getActivePlayer(gameId);\n\n    makeMove(gameId, moveToMake);\n\n    require(checkHasWon(gameId, player, claim));\n\n    gameEnd(gameId,playerAddress);\n  }\n\n  //If the move is valid, make a move on the board\n  function makeMove(uint gameId, uint8 position)\n    public\n    onlyActivePlayer(gameId)\n    onlyWhilePlaying(gameId)\n  {\n    BoardPiece player = games[gameId].whoseTurn;\n\n    require(position >= 0 && position <= 41);\n    require(games[gameId].board[position] == BoardPiece.NONE);\n\n    if (position >= 7){\n      require(games[gameId].board[position - 7] != BoardPiece.NONE);\n    }\n\n    games[gameId].board[position] = player;\n\n    if (player == BoardPiece.RED) {\n      games[gameId].whoseTurn = BoardPiece.BLACK;\n    } else {\n      games[gameId].whoseTurn = BoardPiece.RED;\n    }\n\n    logMoveMade(gameId, player, position);\n  }\n\n  //Is a set of four pieces a valid victory\n  function checkHasWon(uint gameId, BoardPiece who, uint8[4] moves) constant public returns(bool){\n    for (uint8 i = 0; i<4; i++){\n      require(moves[i] >= 0 && moves[i] <= 41);\n      require(games[gameId].board[moves[i]] == who);\n    }\n\n    //First 2 pieces must be in increasing order\n    require(moves[0] < moves[1]);\n    uint8 diff = moves[1] - moves[0];\n\n    //All other pieces must line up the same as the first 2 (and also be increasing)\n    require(moves[2] - moves[1] == diff &&\n            moves[3] - moves[2] == diff);\n\n    //Make sure pieces are in a valid arrangement\n    //And prevent wrap-around\n    if (diff == 1 || diff == 8){\n      //The last piace should be further to the right than the first one\n      require(moves[0] % 7 < moves[3] % 7);\n    } else if (diff == 6){\n      //The last piece should be further to the left than the first one\n      require(moves[3] % 7 < moves[0] % 7);\n    } else if (diff == 7){\n      //Wrap-around isn't a problem with vertical pieces\n    } else{\n      revert();\n    }\n\n    return true;\n\n  }\n\n  //Accessor functions per game\n  function getBid(uint gameId) constant public returns(uint) {\n    return games[gameId].bid;\n  }\n\n  function getLastTimePlayed(uint gameId) constant public returns(uint){\n    return games[gameId].lastTimePlayed;\n  }\n\n  function getPlayerOne(uint gameId) constant public returns(address){\n    return games[gameId].playerOneRed;\n  }\n\n  function getPlayerTwo(uint gameId) constant public returns(address){\n    return games[gameId].playerTwoBlack;\n  }\n\n  function getBoard(uint gameId) constant public returns(BoardPiece[42]){\n    return games[gameId].board;\n  }\n\n  function getWhoseTurn(uint gameId) constant public returns(BoardPiece){\n    return games[gameId].whoseTurn;\n  }\n\n  function getRestricted(uint gameId) constant public returns(bool){\n    return games[gameId].restricted;\n  }\n\n  function getIsStarted(uint gameId) constant public returns(bool){\n    return games[gameId].isStarted;\n  }\n\n  function getGameOver(uint gameId) constant public returns(bool){\n    return games[gameId].gameOver;\n  }\n\n  //Player that is currently going\n  function getActivePlayer(uint gameId) constant internal returns(address){\n    BoardPiece player = games[gameId].whoseTurn;\n\n    if (player == BoardPiece.RED) {\n      return games[gameId].playerOneRed;\n    } else if (player == BoardPiece.BLACK) {\n      return games[gameId].playerTwoBlack;\n    } else {\n      revert();\n    }\n  }\n\n  //Player that is currently not going\n  function getInactivePlayer(uint gameId) constant internal returns(address){\n    BoardPiece player = games[gameId].whoseTurn;\n\n    if (player == BoardPiece.RED) {\n      return games[gameId].playerTwoBlack;\n    } else if (player == BoardPiece.BLACK) {\n      return games[gameId].playerOneRed;\n    } else {\n      revert();\n    }\n  }\n\n  //Increment the game ID and return it\n  function createUniqueId() private returns(uint) {\n    return nextID++;\n  }\n\n  //Helper function for game creation\n  function createNewGameEntry(uint gameId) private{\n    games[gameId].bid = msg.value;\n    games[gameId].playerOneRed = msg.sender;\n    logGameCreated(gameId, false);\n  }\n\n  //Helper function for game end\n  function gameEnd(uint gameId, address winner) private {\n    games[gameId].gameOver = true;\n    uint256 payout = games[gameId].bid * 2;\n\n    asyncTransfer(winner, payout);\n\n    logGameEnd(gameId, winner);\n  }\n\n}\n",
  "sourcePath": "/home/dmelcer9/ethdev/c4/contracts/ConnectFour.sol",
  "compiler": {
    "name": "solc",
    "version": "0.4.24+commit.e67f0147.Emscripten.clang"
  },
  "schemaVersion": "2.0.1",
  "updatedAt": "2018-11-28T22:49:48.676Z"
}