{
  "contractName": "ConnectFour",
  "abi": [
    {
      "constant": true,
      "inputs": [],
      "name": "totalPayments",
      "outputs": [
        {
          "name": "",
          "type": "uint256"
        }
      ],
      "payable": false,
      "stateMutability": "view",
      "type": "function"
    },
    {
      "constant": true,
      "inputs": [
        {
          "name": "gameId",
          "type": "uint256"
        }
      ],
      "name": "getLastTimePlayed",
      "outputs": [
        {
          "name": "",
          "type": "uint256"
        }
      ],
      "payable": false,
      "stateMutability": "view",
      "type": "function"
    },
    {
      "constant": true,
      "inputs": [
        {
          "name": "gameId",
          "type": "uint256"
        }
      ],
      "name": "getBid",
      "outputs": [
        {
          "name": "",
          "type": "uint256"
        }
      ],
      "payable": false,
      "stateMutability": "view",
      "type": "function"
    },
    {
      "constant": true,
      "inputs": [
        {
          "name": "gameId",
          "type": "uint256"
        }
      ],
      "name": "getPlayerTwo",
      "outputs": [
        {
          "name": "",
          "type": "address"
        }
      ],
      "payable": false,
      "stateMutability": "view",
      "type": "function"
    },
    {
      "constant": false,
      "inputs": [
        {
          "name": "gameId",
          "type": "uint256"
        }
      ],
      "name": "forfeit",
      "outputs": [],
      "payable": false,
      "stateMutability": "nonpayable",
      "type": "function"
    },
    {
      "constant": true,
      "inputs": [
        {
          "name": "gameId",
          "type": "uint256"
        }
      ],
      "name": "getBoard",
      "outputs": [
        {
          "name": "",
          "type": "uint8[42]"
        }
      ],
      "payable": false,
      "stateMutability": "view",
      "type": "function"
    },
    {
      "constant": true,
      "inputs": [
        {
          "name": "gameId",
          "type": "uint256"
        }
      ],
      "name": "getGameOver",
      "outputs": [
        {
          "name": "",
          "type": "bool"
        }
      ],
      "payable": false,
      "stateMutability": "view",
      "type": "function"
    },
    {
      "constant": false,
      "inputs": [],
      "name": "withdrawPayments",
      "outputs": [],
      "payable": false,
      "stateMutability": "nonpayable",
      "type": "function"
    },
    {
      "constant": true,
      "inputs": [
        {
          "name": "gameId",
          "type": "uint256"
        }
      ],
      "name": "getIsStarted",
      "outputs": [
        {
          "name": "",
          "type": "bool"
        }
      ],
      "payable": false,
      "stateMutability": "view",
      "type": "function"
    },
    {
      "constant": false,
      "inputs": [
        {
          "name": "playerTwo",
          "type": "address"
        }
      ],
      "name": "createNewRestrictedGame",
      "outputs": [],
      "payable": true,
      "stateMutability": "payable",
      "type": "function"
    },
    {
      "constant": true,
      "inputs": [
        {
          "name": "gameId",
          "type": "uint256"
        }
      ],
      "name": "getRestricted",
      "outputs": [
        {
          "name": "",
          "type": "bool"
        }
      ],
      "payable": false,
      "stateMutability": "view",
      "type": "function"
    },
    {
      "constant": true,
      "inputs": [
        {
          "name": "gameId",
          "type": "uint256"
        }
      ],
      "name": "getWhoseTurn",
      "outputs": [
        {
          "name": "",
          "type": "uint8"
        }
      ],
      "payable": false,
      "stateMutability": "view",
      "type": "function"
    },
    {
      "constant": true,
      "inputs": [
        {
          "name": "gameId",
          "type": "uint256"
        }
      ],
      "name": "getPlayerOne",
      "outputs": [
        {
          "name": "",
          "type": "address"
        }
      ],
      "payable": false,
      "stateMutability": "view",
      "type": "function"
    },
    {
      "constant": true,
      "inputs": [
        {
          "name": "",
          "type": "address"
        }
      ],
      "name": "payments",
      "outputs": [
        {
          "name": "",
          "type": "uint256"
        }
      ],
      "payable": false,
      "stateMutability": "view",
      "type": "function"
    },
    {
      "constant": false,
      "inputs": [],
      "name": "createNewGame",
      "outputs": [],
      "payable": true,
      "stateMutability": "payable",
      "type": "function"
    },
    {
      "constant": false,
      "inputs": [
        {
          "name": "gameId",
          "type": "uint256"
        }
      ],
      "name": "joinGame",
      "outputs": [],
      "payable": true,
      "stateMutability": "payable",
      "type": "function"
    },
    {
      "anonymous": false,
      "inputs": [
        {
          "indexed": false,
          "name": "gameId",
          "type": "uint256"
        },
        {
          "indexed": false,
          "name": "restricted",
          "type": "bool"
        }
      ],
      "name": "logGameCreated",
      "type": "event"
    },
    {
      "anonymous": false,
      "inputs": [
        {
          "indexed": false,
          "name": "gameId",
          "type": "uint256"
        }
      ],
      "name": "logGameStart",
      "type": "event"
    },
    {
      "anonymous": false,
      "inputs": [
        {
          "indexed": false,
          "name": "gameId",
          "type": "uint256"
        },
        {
          "indexed": false,
          "name": "who",
          "type": "uint8"
        },
        {
          "indexed": false,
          "name": "position",
          "type": "uint8"
        }
      ],
      "name": "logMoveMade",
      "type": "event"
    },
    {
      "anonymous": false,
      "inputs": [
        {
          "indexed": false,
          "name": "gameId",
          "type": "uint256"
        },
        {
          "indexed": false,
          "name": "winner",
          "type": "address"
        }
      ],
      "name": "logGameEnd",
      "type": "event"
    }
  ],
  "bytecode": "0x6060604052341561000f57600080fd5b61109f8061001e6000396000f3006060604052600436106100e5576000357c0100000000000000000000000000000000000000000000000000000000900463ffffffff1680625b4487146100ea5780630628b6ba146101135780633c889e6f1461014a5780633d412d0f146101815780633ed546ab146101e457806345e09e54146102075780635e0d8a26146102665780636103d70b146102a15780637e24c66b146102b657806385870dcf146102f15780639e693e5d1461031f578063a100724c1461035a578063a960f05b1461039f578063e2982c2114610402578063eb87eb5e1461044f578063efaa55a014610459575b600080fd5b34156100f557600080fd5b6100fd610471565b6040518082815260200191505060405180910390f35b341561011e57600080fd5b6101346004808035906020019091905050610477565b6040518082815260200191505060405180910390f35b341561015557600080fd5b61016b6004808035906020019091905050610497565b6040518082815260200191505060405180910390f35b341561018c57600080fd5b6101a260048080359060200190919050506104b7565b604051808273ffffffffffffffffffffffffffffffffffffffff1673ffffffffffffffffffffffffffffffffffffffff16815260200191505060405180910390f35b34156101ef57600080fd5b61020560048080359060200190919050506104f7565b005b341561021257600080fd5b610228600480803590602001909190505061079a565b6040518082602a60200280838360005b83811015610253578082015181840152602081019050610238565b5050505090500191505060405180910390f35b341561027157600080fd5b6102876004808035906020019091905050610829565b604051808215151515815260200191505060405180910390f35b34156102ac57600080fd5b6102b4610856565b005b34156102c157600080fd5b6102d76004808035906020019091905050610973565b604051808215151515815260200191505060405180910390f35b61031d600480803573ffffffffffffffffffffffffffffffffffffffff169060200190919050506109a0565b005b341561032a57600080fd5b6103406004808035906020019091905050610a78565b604051808215151515815260200191505060405180910390f35b341561036557600080fd5b61037b6004808035906020019091905050610aa5565b6040518082600281111561038b57fe5b60ff16815260200191505060405180910390f35b34156103aa57600080fd5b6103c06004808035906020019091905050610ad2565b604051808273ffffffffffffffffffffffffffffffffffffffff1673ffffffffffffffffffffffffffffffffffffffff16815260200191505060405180910390f35b341561040d57600080fd5b610439600480803573ffffffffffffffffffffffffffffffffffffffff16906020019091905050610b12565b6040518082815260200191505060405180910390f35b610457610b2a565b005b61046f6004808035906020019091905050610b42565b005b60015481565b600060036000838152602001908152602001600020600101549050919050565b600060036000838152602001908152602001600020600001549050919050565b60006003600083815260200190815260200160002060030160009054906101000a900473ffffffffffffffffffffffffffffffffffffffff169050919050565b806003600082815260200190815260200160002060060160029054906101000a900460ff16801561054957506003600082815260200190815260200160002060060160039054906101000a900460ff16155b151561055457600080fd5b816003600082815260200190815260200160002060020160009054906101000a900473ffffffffffffffffffffffffffffffffffffffff1673ffffffffffffffffffffffffffffffffffffffff163373ffffffffffffffffffffffffffffffffffffffff16148061062657506003600082815260200190815260200160002060030160009054906101000a900473ffffffffffffffffffffffffffffffffffffffff1673ffffffffffffffffffffffffffffffffffffffff163373ffffffffffffffffffffffffffffffffffffffff16145b151561063157600080fd5b6003600084815260200190815260200160002060020160009054906101000a900473ffffffffffffffffffffffffffffffffffffffff1673ffffffffffffffffffffffffffffffffffffffff163373ffffffffffffffffffffffffffffffffffffffff1614156106e0576106db836003600086815260200190815260200160002060030160009054906101000a900473ffffffffffffffffffffffffffffffffffffffff16610dc0565b610795565b6003600084815260200190815260200160002060030160009054906101000a900473ffffffffffffffffffffffffffffffffffffffff1673ffffffffffffffffffffffffffffffffffffffff163373ffffffffffffffffffffffffffffffffffffffff16141561078f5761078a836003600086815260200190815260200160002060020160009054906101000a900473ffffffffffffffffffffffffffffffffffffffff16610dc0565b610794565b600080fd5b5b505050565b6107a261103f565b60036000838152602001908152602001600020600401602a806020026040519081016040528092919082602a801561081d576020028201916000905b82829054906101000a900460ff1660028111156107f757fe5b815260200190600101906020826000010492830192600103820291508084116107de5790505b50505050509050919050565b60006003600083815260200190815260200160002060060160039054906101000a900460ff169050919050565b6000803391506000808373ffffffffffffffffffffffffffffffffffffffff1673ffffffffffffffffffffffffffffffffffffffff168152602001908152602001600020549050600081141515156108ad57600080fd5b803073ffffffffffffffffffffffffffffffffffffffff1631101515156108d357600080fd5b6108e881600154610e8790919063ffffffff16565b60018190555060008060008473ffffffffffffffffffffffffffffffffffffffff1673ffffffffffffffffffffffffffffffffffffffff168152602001908152602001600020819055508173ffffffffffffffffffffffffffffffffffffffff166108fc829081150290604051600060405180830381858888f19350505050151561096f57fe5b5050565b60006003600083815260200190815260200160002060060160029054906101000a900460ff169050919050565b60003373ffffffffffffffffffffffffffffffffffffffff168273ffffffffffffffffffffffffffffffffffffffff16141515156109dd57600080fd5b6109e5610ea0565b905060016003600083815260200190815260200160002060060160016101000a81548160ff021916908315150217905550816003600083815260200190815260200160002060030160006101000a81548173ffffffffffffffffffffffffffffffffffffffff021916908373ffffffffffffffffffffffffffffffffffffffff160217905550610a7481610eb8565b5050565b60006003600083815260200190815260200160002060060160019054906101000a900460ff169050919050565b60006003600083815260200190815260200160002060060160009054906101000a900460ff169050919050565b60006003600083815260200190815260200160002060020160009054906101000a900473ffffffffffffffffffffffffffffffffffffffff169050919050565b60006020528060005260406000206000915090505481565b6000610b34610ea0565b9050610b3f81610eb8565b50565b8060006003600083815260200190815260200160002060020160009054906101000a900473ffffffffffffffffffffffffffffffffffffffff1673ffffffffffffffffffffffffffffffffffffffff1614151515610b9f57600080fd5b816003600082815260200190815260200160002060060160029054906101000a900460ff16151515610bd057600080fd5b3373ffffffffffffffffffffffffffffffffffffffff16610bf084610ad2565b73ffffffffffffffffffffffffffffffffffffffff1614151515610c1357600080fd5b610c1c83610497565b34141515610c2957600080fd5b610c3283610a78565b15610cac573373ffffffffffffffffffffffffffffffffffffffff166003600085815260200190815260200160002060030160009054906101000a900473ffffffffffffffffffffffffffffffffffffffff1673ffffffffffffffffffffffffffffffffffffffff16141515610ca757600080fd5b610d02565b336003600085815260200190815260200160002060030160006101000a81548173ffffffffffffffffffffffffffffffffffffffff021916908373ffffffffffffffffffffffffffffffffffffffff1602179055505b42600360008581526020019081526020016000206001018190555060016003600085815260200190815260200160002060060160026101000a81548160ff02191690831515021790555060016003600085815260200190815260200160002060060160006101000a81548160ff02191690836002811115610d7f57fe5b02179055507fb67b12ea4e48bdaf33fea4567f20c1b9d1e570f99cfbe8b3c359d2e1ac352dca836040518082815260200191505060405180910390a1505050565b600060016003600085815260200190815260200160002060060160036101000a81548160ff02191690831515021790555060026003600085815260200190815260200160002060000154029050610e178282610f6f565b7f2799f7db9b662090ba734216b411a1786edb43fd4d384f1eb7f332e824347bf98383604051808381526020018273ffffffffffffffffffffffffffffffffffffffff1673ffffffffffffffffffffffffffffffffffffffff1681526020019250505060405180910390a1505050565b6000828211151515610e9557fe5b818303905092915050565b60006002600081548092919060010191905055905090565b346003600083815260200190815260200160002060000181905550336003600083815260200190815260200160002060020160006101000a81548173ffffffffffffffffffffffffffffffffffffffff021916908373ffffffffffffffffffffffffffffffffffffffff1602179055507feaf0b95c5849c1d74de24977c84c7991623dd2d4645913aa4dc5866d53a0b14581600060405180838152602001821515151581526020019250505060405180910390a150565b610fc0816000808573ffffffffffffffffffffffffffffffffffffffff1673ffffffffffffffffffffffffffffffffffffffff1681526020019081526020016000205461102190919063ffffffff16565b6000808473ffffffffffffffffffffffffffffffffffffffff1673ffffffffffffffffffffffffffffffffffffffff168152602001908152602001600020819055506110178160015461102190919063ffffffff16565b6001819055505050565b600080828401905083811015151561103557fe5b8091505092915050565b61054060405190810160405280602a905b6000600281111561105d57fe5b81526020019060019003908161105057905050905600a165627a7a72305820dd69bb756bdd3bf64396ab62dd6407ea7409bc1dfed5c5ede355e032706c05750029",
  "source": "pragma solidity ^0.4.18;\n\nimport '../node_modules/zeppelin-solidity/contracts/payment/PullPayment.sol';\n//function asyncSend(address dest, uint256 amount) internal;\n//function withdrawPayments() public;\n\ncontract ConnectFour is PullPayment {\n\n  enum BoardPiece {NONE, RED, BLACK}\n  struct GameState {\n    uint bid; //How much each player bids\n    uint lastTimePlayed; //When was the last move made?\n\n    address playerOneRed;\n    address playerTwoBlack;\n\n    //Board is 7 columns by 6 rows\n    //0 is the bottom-left corner of the board\n    //1 is the second from the left on the bottom\n    //6 is the botto-right corner\n    //7 is the left on the second-to-bottom row\n    BoardPiece[42] board;\n\n    BoardPiece whoseTurn;\n\n    bool restricted;\n    bool isStarted;\n    bool gameOver;\n  }\n\n  event logGameCreated(uint gameId, bool restricted);\n  event logGameStart(uint gameId);\n  event logMoveMade(uint gameId, BoardPiece who, uint8 position);\n  event logGameEnd(uint gameId, address winner);\n\n\n  uint nextID;\n\n  mapping (uint => GameState) games;\n\n  modifier onlyGameExists(uint gameId){\n    require(games[gameId].playerOneRed != 0);\n    _;\n  }\n\n  modifier onlyWhileNotStarted(uint gameId){\n    require(!games[gameId].isStarted);\n    _;\n  }\n\n  modifier onlyWhilePlaying(uint gameId){\n    require(games[gameId].isStarted && !games[gameId].gameOver);\n    _;\n  }\n\n  modifier onlyPlayers(uint gameId){\n    require(msg.sender == games[gameId].playerOneRed\n      || msg.sender == games[gameId].playerTwoBlack);\n      _;\n  }\n\n  modifier onlyActivePlayer(uint gameId){\n    BoardPiece player = games[gameId].whoseTurn;\n\n    if(player == BoardPiece.RED){\n      require(msg.sender == games[gameId].playerOneRed);\n    } else if(player == BoardPiece.BLACK){\n      require(msg.sender == games[gameId].playerTwoBlack);\n    } else{\n      revert();\n    }\n\n    _;\n  }\n\n  function getBid(uint gameId) constant public returns(uint) {\n    return games[gameId].bid;\n  }\n\n  function getLastTimePlayed(uint gameId) constant public returns(uint){\n    return games[gameId].lastTimePlayed;\n  }\n\n  function getPlayerOne(uint gameId) constant public returns(address){\n    return games[gameId].playerOneRed;\n  }\n\n  function getPlayerTwo(uint gameId) constant public returns(address){\n    return games[gameId].playerTwoBlack;\n  }\n\n  function getBoard(uint gameId) constant public returns(BoardPiece[42]){\n    return games[gameId].board;\n  }\n\n  function getWhoseTurn(uint gameId) constant public returns(BoardPiece){\n    return games[gameId].whoseTurn;\n  }\n\n  function getRestricted(uint gameId) constant public returns(bool){\n    return games[gameId].restricted;\n  }\n\n  function getIsStarted(uint gameId) constant public returns(bool){\n    return games[gameId].isStarted;\n  }\n\n  function getGameOver(uint gameId) constant public returns(bool){\n    return games[gameId].gameOver;\n  }\n\n  function createUniqueId() private returns(uint) {\n    return nextID++;\n  }\n\n  function _createNewGame(uint gameId) private{\n    games[gameId].bid = msg.value;\n    games[gameId].playerOneRed = msg.sender;\n    logGameCreated(gameId, false);\n  }\n\n  function createNewGame() external payable {\n    uint gameId = createUniqueId();\n    _createNewGame(gameId);\n  }\n\n  function createNewRestrictedGame(address playerTwo) external payable {\n    require(playerTwo != msg.sender);\n    uint gameId = createUniqueId();\n    games[gameId].restricted = true;\n    games[gameId].playerTwoBlack = playerTwo;\n    _createNewGame(gameId);\n  }\n\n  function joinGame(uint gameId) external payable\n  onlyGameExists(gameId)\n  onlyWhileNotStarted(gameId) {\n    require(getPlayerOne(gameId) != msg.sender);\n    require(msg.value == getBid(gameId));\n\n    if(getRestricted(gameId)){\n      require(games[gameId].playerTwoBlack == msg.sender);\n    } else {\n      games[gameId].playerTwoBlack = msg.sender;\n    }\n\n    games[gameId].lastTimePlayed = now;\n    games[gameId].isStarted = true;\n    games[gameId].whoseTurn = BoardPiece.RED;\n    logGameStart(gameId);\n  }\n\n  function gameEnd(uint gameId, address winner) private {\n    games[gameId].gameOver = true;\n    uint256 payout = games[gameId].bid * 2;\n\n    asyncSend(winner, payout);\n\n    logGameEnd(gameId, winner);\n  }\n\n  function forfeit(uint gameId) external\n  onlyWhilePlaying(gameId)\n  onlyPlayers(gameId){\n    if(msg.sender == games[gameId].playerOneRed){\n      gameEnd(gameId, games[gameId].playerTwoBlack);\n    } else if(msg.sender == games[gameId].playerTwoBlack){\n      gameEnd(gameId, games[gameId].playerOneRed);\n    } else{\n      //This should never happen\n      revert();\n    }\n  }\n\n}\n",
  "sourcePath": "/home/dmelcer9/ethdev/c4/contracts/ConnectFour.sol",
  "compiler": {
    "name": "solc",
    "version": "0.4.18+commit.9cf6e910.Emscripten.clang"
  },
  "schemaVersion": "1.0.1",
  "updatedAt": "2017-12-16T19:45:23.238Z"
}