{
  "contractName": "ConnectFour",
  "abi": [
    {
      "constant": true,
      "inputs": [],
      "name": "totalPayments",
      "outputs": [
        {
          "name": "",
          "type": "uint256"
        }
      ],
      "payable": false,
      "stateMutability": "view",
      "type": "function"
    },
    {
      "constant": true,
      "inputs": [
        {
          "name": "gameId",
          "type": "uint256"
        }
      ],
      "name": "getLastTimePlayed",
      "outputs": [
        {
          "name": "",
          "type": "uint256"
        }
      ],
      "payable": false,
      "stateMutability": "view",
      "type": "function"
    },
    {
      "constant": true,
      "inputs": [
        {
          "name": "gameId",
          "type": "uint256"
        }
      ],
      "name": "getBid",
      "outputs": [
        {
          "name": "",
          "type": "uint256"
        }
      ],
      "payable": false,
      "stateMutability": "view",
      "type": "function"
    },
    {
      "constant": true,
      "inputs": [
        {
          "name": "gameId",
          "type": "uint256"
        }
      ],
      "name": "getPlayerTwo",
      "outputs": [
        {
          "name": "",
          "type": "address"
        }
      ],
      "payable": false,
      "stateMutability": "view",
      "type": "function"
    },
    {
      "constant": true,
      "inputs": [
        {
          "name": "gameId",
          "type": "uint256"
        }
      ],
      "name": "getBoard",
      "outputs": [
        {
          "name": "",
          "type": "uint8[42]"
        }
      ],
      "payable": false,
      "stateMutability": "view",
      "type": "function"
    },
    {
      "constant": true,
      "inputs": [
        {
          "name": "gameId",
          "type": "uint256"
        }
      ],
      "name": "getGameOver",
      "outputs": [
        {
          "name": "",
          "type": "bool"
        }
      ],
      "payable": false,
      "stateMutability": "view",
      "type": "function"
    },
    {
      "constant": false,
      "inputs": [],
      "name": "withdrawPayments",
      "outputs": [],
      "payable": false,
      "stateMutability": "nonpayable",
      "type": "function"
    },
    {
      "constant": true,
      "inputs": [
        {
          "name": "gameId",
          "type": "uint256"
        }
      ],
      "name": "getIsStarted",
      "outputs": [
        {
          "name": "",
          "type": "bool"
        }
      ],
      "payable": false,
      "stateMutability": "view",
      "type": "function"
    },
    {
      "constant": true,
      "inputs": [
        {
          "name": "gameId",
          "type": "uint256"
        }
      ],
      "name": "getRestricted",
      "outputs": [
        {
          "name": "",
          "type": "bool"
        }
      ],
      "payable": false,
      "stateMutability": "view",
      "type": "function"
    },
    {
      "constant": true,
      "inputs": [
        {
          "name": "gameId",
          "type": "uint256"
        }
      ],
      "name": "getWhoseTurn",
      "outputs": [
        {
          "name": "",
          "type": "uint8"
        }
      ],
      "payable": false,
      "stateMutability": "view",
      "type": "function"
    },
    {
      "constant": true,
      "inputs": [
        {
          "name": "gameId",
          "type": "uint256"
        }
      ],
      "name": "getPlayerOne",
      "outputs": [
        {
          "name": "",
          "type": "address"
        }
      ],
      "payable": false,
      "stateMutability": "view",
      "type": "function"
    },
    {
      "constant": true,
      "inputs": [
        {
          "name": "",
          "type": "address"
        }
      ],
      "name": "payments",
      "outputs": [
        {
          "name": "",
          "type": "uint256"
        }
      ],
      "payable": false,
      "stateMutability": "view",
      "type": "function"
    },
    {
      "constant": false,
      "inputs": [],
      "name": "createNewGame",
      "outputs": [],
      "payable": true,
      "stateMutability": "payable",
      "type": "function"
    }
  ],
  "bytecode": "0x6060604052341561000f57600080fd5b6107e08061001e6000396000f3006060604052600436106100c4576000357c0100000000000000000000000000000000000000000000000000000000900463ffffffff1680625b4487146100c95780630628b6ba146100f25780633c889e6f146101295780633d412d0f1461016057806345e09e54146101c35780635e0d8a26146102225780636103d70b1461025d5780637e24c66b146102725780639e693e5d146102ad578063a100724c146102e8578063a960f05b1461032d578063e2982c2114610390578063eb87eb5e146103dd575b600080fd5b34156100d457600080fd5b6100dc6103e7565b6040518082815260200191505060405180910390f35b34156100fd57600080fd5b61011360048080359060200190919050506103ed565b6040518082815260200191505060405180910390f35b341561013457600080fd5b61014a600480803590602001909190505061040d565b6040518082815260200191505060405180910390f35b341561016b57600080fd5b610181600480803590602001909190505061042d565b604051808273ffffffffffffffffffffffffffffffffffffffff1673ffffffffffffffffffffffffffffffffffffffff16815260200191505060405180910390f35b34156101ce57600080fd5b6101e4600480803590602001909190505061046d565b6040518082602a60200280838360005b8381101561020f5780820151818401526020810190506101f4565b5050505090500191505060405180910390f35b341561022d57600080fd5b61024360048080359060200190919050506104fc565b604051808215151515815260200191505060405180910390f35b341561026857600080fd5b610270610529565b005b341561027d57600080fd5b6102936004808035906020019091905050610646565b604051808215151515815260200191505060405180910390f35b34156102b857600080fd5b6102ce6004808035906020019091905050610673565b604051808215151515815260200191505060405180910390f35b34156102f357600080fd5b61030960048080359060200190919050506106a0565b6040518082600281111561031957fe5b60ff16815260200191505060405180910390f35b341561033857600080fd5b61034e60048080359060200190919050506106cd565b604051808273ffffffffffffffffffffffffffffffffffffffff1673ffffffffffffffffffffffffffffffffffffffff16815260200191505060405180910390f35b341561039b57600080fd5b6103c7600480803573ffffffffffffffffffffffffffffffffffffffff1690602001909190505061070d565b6040518082815260200191505060405180910390f35b6103e5610725565b005b60015481565b600060036000838152602001908152602001600020600101549050919050565b600060036000838152602001908152602001600020600001549050919050565b60006003600083815260200190815260200160002060030160009054906101000a900473ffffffffffffffffffffffffffffffffffffffff169050919050565b610475610780565b60036000838152602001908152602001600020600401602a806020026040519081016040528092919082602a80156104f0576020028201916000905b82829054906101000a900460ff1660028111156104ca57fe5b815260200190600101906020826000010492830192600103820291508084116104b15790505b50505050509050919050565b60006003600083815260200190815260200160002060060160039054906101000a900460ff169050919050565b6000803391506000808373ffffffffffffffffffffffffffffffffffffffff1673ffffffffffffffffffffffffffffffffffffffff1681526020019081526020016000205490506000811415151561058057600080fd5b803073ffffffffffffffffffffffffffffffffffffffff1631101515156105a657600080fd5b6105bb8160015461074f90919063ffffffff16565b60018190555060008060008473ffffffffffffffffffffffffffffffffffffffff1673ffffffffffffffffffffffffffffffffffffffff168152602001908152602001600020819055508173ffffffffffffffffffffffffffffffffffffffff166108fc829081150290604051600060405180830381858888f19350505050151561064257fe5b5050565b60006003600083815260200190815260200160002060060160029054906101000a900460ff169050919050565b60006003600083815260200190815260200160002060060160019054906101000a900460ff169050919050565b60006003600083815260200190815260200160002060060160009054906101000a900460ff169050919050565b60006003600083815260200190815260200160002060020160009054906101000a900473ffffffffffffffffffffffffffffffffffffffff169050919050565b60006020528060005260406000206000915090505481565b600061072f610768565b905034600360008381526020019081526020016000206000018190555050565b600082821115151561075d57fe5b818303905092915050565b60006002600081548092919060010191905055905090565b61054060405190810160405280602a905b6000600281111561079e57fe5b81526020019060019003908161079157905050905600a165627a7a72305820c9f163752593b606d798acad0c45cde11ca232fc653d1dcf13088f32aae4bbc50029",
  "source": "//pragma solidity ^0.4.14\n\nimport '../node_modules/zeppelin-solidity/contracts/payment/PullPayment.sol';\n//function asyncSend(address dest, uint256 amount) internal;\n//function withdrawPayments() public;\n\ncontract ConnectFour is PullPayment {\n\n  enum BoardPiece {NONE, RED, BLACK}\n  struct GameState {\n    uint bid; //How much each player bids\n    uint lastTimePlayed; //When was the last move made?\n\n    address playerOneRed;\n    address playerTwoBlack;\n\n    //Board is 7 columns by 6 rows\n    //0 is the bottom-left corner of the board\n    //1 is the second from the left on the bottom\n    //6 is the botto-right corner\n    //7 is the left on the second-to-bottom row\n    BoardPiece[42] board;\n\n    BoardPiece whoseTurn;\n\n    bool restricted;\n    bool isStarted;\n    bool gameOver;\n\n\n  }\n\n  uint nextID;\n\n  mapping (uint => GameState) games;\n\n  function getBid(uint gameId) constant public returns(uint) {\n    return games[gameId].bid;\n  }\n\n  function getLastTimePlayed(uint gameId) constant public returns(uint){\n    return games[gameId].lastTimePlayed;\n  }\n\n  function getPlayerOne(uint gameId) constant public returns(address){\n    return games[gameId].playerOneRed;\n  }\n\n  function getPlayerTwo(uint gameId) constant public returns(address){\n    return games[gameId].playerTwoBlack;\n  }\n\n  function getBoard(uint gameId) constant public returns(BoardPiece[42]){\n    return games[gameId].board;\n  }\n\n  function getWhoseTurn(uint gameId) constant public returns(BoardPiece){\n    return games[gameId].whoseTurn;\n  }\n\n  function getRestricted(uint gameId) constant public returns(bool){\n    return games[gameId].restricted;\n  }\n\n  function getIsStarted(uint gameId) constant public returns(bool){\n    return games[gameId].isStarted;\n  }\n\n  function getGameOver(uint gameId) constant public returns(bool){\n    return games[gameId].gameOver;\n  }\n\n  function createUniqueId() internal returns(uint) {\n    return nextID++;\n  }\n\n  function createNewGame() external payable {\n    uint id = createUniqueId();\n    games[id].bid = msg.value;\n  }\n\n}\n",
  "sourcePath": "/home/dmelcer9/ethdev/c4/contracts/ConnectFour.sol",
  "compiler": {
    "name": "solc",
    "version": "0.4.18+commit.9cf6e910.Emscripten.clang"
  },
  "schemaVersion": "1.0.1",
  "updatedAt": "2017-12-15T18:14:40.431Z"
}