{
  "contractName": "ConnectFour",
  "abi": [
    {
      "constant": true,
      "inputs": [],
      "name": "totalPayments",
      "outputs": [
        {
          "name": "",
          "type": "uint256"
        }
      ],
      "payable": false,
      "stateMutability": "view",
      "type": "function"
    },
    {
      "constant": true,
      "inputs": [
        {
          "name": "gameId",
          "type": "uint256"
        }
      ],
      "name": "getLastTimePlayed",
      "outputs": [
        {
          "name": "",
          "type": "uint256"
        }
      ],
      "payable": false,
      "stateMutability": "view",
      "type": "function"
    },
    {
      "constant": true,
      "inputs": [
        {
          "name": "",
          "type": "uint256"
        }
      ],
      "name": "games",
      "outputs": [
        {
          "name": "bid",
          "type": "uint256"
        },
        {
          "name": "lastTimePlayed",
          "type": "uint256"
        },
        {
          "name": "playerOneRed",
          "type": "address"
        },
        {
          "name": "playerTwoBlack",
          "type": "address"
        },
        {
          "name": "whoseTurn",
          "type": "uint8"
        },
        {
          "name": "restricted",
          "type": "bool"
        },
        {
          "name": "isStarted",
          "type": "bool"
        },
        {
          "name": "gameOver",
          "type": "bool"
        }
      ],
      "payable": false,
      "stateMutability": "view",
      "type": "function"
    },
    {
      "constant": false,
      "inputs": [
        {
          "name": "gameId",
          "type": "uint256"
        },
        {
          "name": "moveToMake",
          "type": "uint8"
        },
        {
          "name": "claim",
          "type": "uint8[4]"
        }
      ],
      "name": "makeMoveAndClaimVictory",
      "outputs": [],
      "payable": false,
      "stateMutability": "nonpayable",
      "type": "function"
    },
    {
      "constant": true,
      "inputs": [
        {
          "name": "gameId",
          "type": "uint256"
        }
      ],
      "name": "getBid",
      "outputs": [
        {
          "name": "",
          "type": "uint256"
        }
      ],
      "payable": false,
      "stateMutability": "view",
      "type": "function"
    },
    {
      "constant": true,
      "inputs": [
        {
          "name": "gameId",
          "type": "uint256"
        }
      ],
      "name": "getPlayerTwo",
      "outputs": [
        {
          "name": "",
          "type": "address"
        }
      ],
      "payable": false,
      "stateMutability": "view",
      "type": "function"
    },
    {
      "constant": false,
      "inputs": [
        {
          "name": "gameId",
          "type": "uint256"
        }
      ],
      "name": "forfeit",
      "outputs": [],
      "payable": false,
      "stateMutability": "nonpayable",
      "type": "function"
    },
    {
      "constant": true,
      "inputs": [
        {
          "name": "gameId",
          "type": "uint256"
        }
      ],
      "name": "getBoard",
      "outputs": [
        {
          "name": "",
          "type": "uint8[42]"
        }
      ],
      "payable": false,
      "stateMutability": "view",
      "type": "function"
    },
    {
      "constant": true,
      "inputs": [
        {
          "name": "gameId",
          "type": "uint256"
        }
      ],
      "name": "getGameOver",
      "outputs": [
        {
          "name": "",
          "type": "bool"
        }
      ],
      "payable": false,
      "stateMutability": "view",
      "type": "function"
    },
    {
      "constant": false,
      "inputs": [],
      "name": "withdrawPayments",
      "outputs": [],
      "payable": false,
      "stateMutability": "nonpayable",
      "type": "function"
    },
    {
      "constant": true,
      "inputs": [
        {
          "name": "gameId",
          "type": "uint256"
        }
      ],
      "name": "getIsStarted",
      "outputs": [
        {
          "name": "",
          "type": "bool"
        }
      ],
      "payable": false,
      "stateMutability": "view",
      "type": "function"
    },
    {
      "constant": false,
      "inputs": [
        {
          "name": "gameId",
          "type": "uint256"
        },
        {
          "name": "position",
          "type": "uint8"
        }
      ],
      "name": "makeMove",
      "outputs": [],
      "payable": false,
      "stateMutability": "nonpayable",
      "type": "function"
    },
    {
      "constant": false,
      "inputs": [
        {
          "name": "playerTwo",
          "type": "address"
        }
      ],
      "name": "createNewRestrictedGame",
      "outputs": [],
      "payable": true,
      "stateMutability": "payable",
      "type": "function"
    },
    {
      "constant": true,
      "inputs": [
        {
          "name": "gameId",
          "type": "uint256"
        }
      ],
      "name": "getRestricted",
      "outputs": [
        {
          "name": "",
          "type": "bool"
        }
      ],
      "payable": false,
      "stateMutability": "view",
      "type": "function"
    },
    {
      "constant": true,
      "inputs": [
        {
          "name": "gameId",
          "type": "uint256"
        }
      ],
      "name": "getWhoseTurn",
      "outputs": [
        {
          "name": "",
          "type": "uint8"
        }
      ],
      "payable": false,
      "stateMutability": "view",
      "type": "function"
    },
    {
      "constant": true,
      "inputs": [
        {
          "name": "gameId",
          "type": "uint256"
        }
      ],
      "name": "getPlayerOne",
      "outputs": [
        {
          "name": "",
          "type": "address"
        }
      ],
      "payable": false,
      "stateMutability": "view",
      "type": "function"
    },
    {
      "constant": false,
      "inputs": [
        {
          "name": "gameId",
          "type": "uint256"
        }
      ],
      "name": "cancelCreatedGame",
      "outputs": [],
      "payable": false,
      "stateMutability": "nonpayable",
      "type": "function"
    },
    {
      "constant": true,
      "inputs": [
        {
          "name": "gameId",
          "type": "uint256"
        },
        {
          "name": "who",
          "type": "uint8"
        },
        {
          "name": "moves",
          "type": "uint8[4]"
        }
      ],
      "name": "checkHasWon",
      "outputs": [
        {
          "name": "",
          "type": "bool"
        }
      ],
      "payable": false,
      "stateMutability": "view",
      "type": "function"
    },
    {
      "constant": true,
      "inputs": [
        {
          "name": "",
          "type": "address"
        }
      ],
      "name": "payments",
      "outputs": [
        {
          "name": "",
          "type": "uint256"
        }
      ],
      "payable": false,
      "stateMutability": "view",
      "type": "function"
    },
    {
      "constant": false,
      "inputs": [],
      "name": "createNewGame",
      "outputs": [],
      "payable": true,
      "stateMutability": "payable",
      "type": "function"
    },
    {
      "constant": false,
      "inputs": [
        {
          "name": "gameId",
          "type": "uint256"
        }
      ],
      "name": "joinGame",
      "outputs": [],
      "payable": true,
      "stateMutability": "payable",
      "type": "function"
    },
    {
      "constant": false,
      "inputs": [
        {
          "name": "gameId",
          "type": "uint256"
        }
      ],
      "name": "claimTimeoutVictory",
      "outputs": [],
      "payable": false,
      "stateMutability": "nonpayable",
      "type": "function"
    },
    {
      "constant": true,
      "inputs": [],
      "name": "moveTimeout",
      "outputs": [
        {
          "name": "",
          "type": "uint256"
        }
      ],
      "payable": false,
      "stateMutability": "view",
      "type": "function"
    },
    {
      "inputs": [
        {
          "name": "timeout",
          "type": "uint256"
        }
      ],
      "payable": false,
      "stateMutability": "nonpayable",
      "type": "constructor"
    },
    {
      "payable": false,
      "stateMutability": "nonpayable",
      "type": "fallback"
    },
    {
      "anonymous": false,
      "inputs": [
        {
          "indexed": false,
          "name": "gameId",
          "type": "uint256"
        },
        {
          "indexed": false,
          "name": "restricted",
          "type": "bool"
        }
      ],
      "name": "logGameCreated",
      "type": "event"
    },
    {
      "anonymous": false,
      "inputs": [
        {
          "indexed": false,
          "name": "gameId",
          "type": "uint256"
        }
      ],
      "name": "logGameStart",
      "type": "event"
    },
    {
      "anonymous": false,
      "inputs": [
        {
          "indexed": false,
          "name": "gameId",
          "type": "uint256"
        },
        {
          "indexed": false,
          "name": "who",
          "type": "uint8"
        },
        {
          "indexed": false,
          "name": "position",
          "type": "uint8"
        }
      ],
      "name": "logMoveMade",
      "type": "event"
    },
    {
      "anonymous": false,
      "inputs": [
        {
          "indexed": false,
          "name": "gameId",
          "type": "uint256"
        },
        {
          "indexed": false,
          "name": "winner",
          "type": "address"
        }
      ],
      "name": "logGameEnd",
      "type": "event"
    },
    {
      "anonymous": false,
      "inputs": [
        {
          "indexed": false,
          "name": "gameId",
          "type": "uint256"
        }
      ],
      "name": "logGameCancel",
      "type": "event"
    }
  ],
  "bytecode": "0x6060604052341561000f57600080fd5b604051602080611fdc833981016040528080519060200190919050508060028190555050611f9a806100426000396000f300606060405260043610610132576000357c0100000000000000000000000000000000000000000000000000000000900463ffffffff1680625b4487146101425780630628b6ba1461016b578063117a5b90146101a2578063224bbbac1461027c5780633c889e6f146102b25780633d412d0f146102e95780633ed546ab1461034c57806345e09e541461036f5780635e0d8a26146103ce5780636103d70b146104095780637e24c66b1461041e5780637fd6f7c41461045957806385870dcf146104885780639e693e5d146104b6578063a100724c146104f1578063a960f05b14610536578063b153ac5514610599578063bfd2b628146105bc578063e2982c211461062f578063eb87eb5e1461067c578063efaa55a014610686578063eff53a691461069e578063fdb894ac146106c1575b341561013d57600080fd5b600080fd5b341561014d57600080fd5b6101556106ea565b6040518082815260200191505060405180910390f35b341561017657600080fd5b61018c60048080359060200190919050506106f0565b6040518082815260200191505060405180910390f35b34156101ad57600080fd5b6101c36004808035906020019091905050610710565b604051808981526020018881526020018773ffffffffffffffffffffffffffffffffffffffff1673ffffffffffffffffffffffffffffffffffffffff1681526020018673ffffffffffffffffffffffffffffffffffffffff1673ffffffffffffffffffffffffffffffffffffffff16815260200185600281111561024357fe5b60ff1681526020018415151515815260200183151515158152602001821515151581526020019850505050505050505060405180910390f35b341561028757600080fd5b6102b0600480803590602001909190803560ff16906020019091908060800190919050506107cc565b005b34156102bd57600080fd5b6102d360048080359060200190919050506108f8565b6040518082815260200191505060405180910390f35b34156102f457600080fd5b61030a6004808035906020019091905050610918565b604051808273ffffffffffffffffffffffffffffffffffffffff1673ffffffffffffffffffffffffffffffffffffffff16815260200191505060405180910390f35b341561035757600080fd5b61036d6004808035906020019091905050610958565b005b341561037a57600080fd5b6103906004808035906020019091905050610bfb565b6040518082602a60200280838360005b838110156103bb5780820151818401526020810190506103a0565b5050505090500191505060405180910390f35b34156103d957600080fd5b6103ef6004808035906020019091905050610c8a565b604051808215151515815260200191505060405180910390f35b341561041457600080fd5b61041c610cb7565b005b341561042957600080fd5b61043f6004808035906020019091905050610dd4565b604051808215151515815260200191505060405180910390f35b341561046457600080fd5b610486600480803590602001909190803560ff16906020019091905050610e01565b005b6104b4600480803573ffffffffffffffffffffffffffffffffffffffff16906020019091905050611104565b005b34156104c157600080fd5b6104d760048080359060200190919050506111dc565b604051808215151515815260200191505060405180910390f35b34156104fc57600080fd5b6105126004808035906020019091905050611209565b6040518082600281111561052257fe5b60ff16815260200191505060405180910390f35b341561054157600080fd5b6105576004808035906020019091905050611236565b604051808273ffffffffffffffffffffffffffffffffffffffff1673ffffffffffffffffffffffffffffffffffffffff16815260200191505060405180910390f35b34156105a457600080fd5b6105ba6004808035906020019091905050611276565b005b34156105c757600080fd5b610615600480803590602001909190803560ff16906020019091908060800190600480602002604051908101604052809291908260046020028082843782019150505050509190505061145d565b604051808215151515815260200191505060405180910390f35b341561063a57600080fd5b610666600480803573ffffffffffffffffffffffffffffffffffffffff1690602001909190505061171f565b6040518082815260200191505060405180910390f35b610684611737565b005b61069c600480803590602001909190505061174f565b005b34156106a957600080fd5b6106bf60048080359060200190919050506119fa565b005b34156106cc57600080fd5b6106d4611adb565b6040518082815260200191505060405180910390f35b60015481565b600060046000838152602001908152602001600020600101549050919050565b60046020528060005260406000206000915090508060000154908060010154908060020160009054906101000a900473ffffffffffffffffffffffffffffffffffffffff16908060030160009054906101000a900473ffffffffffffffffffffffffffffffffffffffff16908060060160009054906101000a900460ff16908060060160019054906101000a900460ff16908060060160029054906101000a900460ff16908060060160039054906101000a900460ff16905088565b600080846107d981611ae1565b73ffffffffffffffffffffffffffffffffffffffff163373ffffffffffffffffffffffffffffffffffffffff1614151561081257600080fd5b856004600082815260200190815260200160002060060160029054906101000a900460ff16801561086457506004600082815260200190815260200160002060060160039054906101000a900460ff16155b151561086f57600080fd5b6004600088815260200190815260200160002060060160009054906101000a900460ff16935061089e87611ae1565b92506108aa8787610e01565b6108da8785876004806020026040519081016040528092919082600460200280828437820191505050505061145d565b15156108e557600080fd5b6108ef8784611bce565b50505050505050565b600060046000838152602001908152602001600020600001549050919050565b60006004600083815260200190815260200160002060030160009054906101000a900473ffffffffffffffffffffffffffffffffffffffff169050919050565b806004600082815260200190815260200160002060060160029054906101000a900460ff1680156109aa57506004600082815260200190815260200160002060060160039054906101000a900460ff16155b15156109b557600080fd5b816004600082815260200190815260200160002060020160009054906101000a900473ffffffffffffffffffffffffffffffffffffffff1673ffffffffffffffffffffffffffffffffffffffff163373ffffffffffffffffffffffffffffffffffffffff161480610a8757506004600082815260200190815260200160002060030160009054906101000a900473ffffffffffffffffffffffffffffffffffffffff1673ffffffffffffffffffffffffffffffffffffffff163373ffffffffffffffffffffffffffffffffffffffff16145b1515610a9257600080fd5b6004600084815260200190815260200160002060020160009054906101000a900473ffffffffffffffffffffffffffffffffffffffff1673ffffffffffffffffffffffffffffffffffffffff163373ffffffffffffffffffffffffffffffffffffffff161415610b4157610b3c836004600086815260200190815260200160002060030160009054906101000a900473ffffffffffffffffffffffffffffffffffffffff16611bce565b610bf6565b6004600084815260200190815260200160002060030160009054906101000a900473ffffffffffffffffffffffffffffffffffffffff1673ffffffffffffffffffffffffffffffffffffffff163373ffffffffffffffffffffffffffffffffffffffff161415610bf057610beb836004600086815260200190815260200160002060020160009054906101000a900473ffffffffffffffffffffffffffffffffffffffff16611bce565b610bf5565b600080fd5b5b505050565b610c03611f3a565b60046000838152602001908152602001600020600401602a806020026040519081016040528092919082602a8015610c7e576020028201916000905b82829054906101000a900460ff166002811115610c5857fe5b81526020019060010190602082600001049283019260010382029150808411610c3f5790505b50505050509050919050565b60006004600083815260200190815260200160002060060160039054906101000a900460ff169050919050565b6000803391506000808373ffffffffffffffffffffffffffffffffffffffff1673ffffffffffffffffffffffffffffffffffffffff16815260200190815260200160002054905060008114151515610d0e57600080fd5b803073ffffffffffffffffffffffffffffffffffffffff163110151515610d3457600080fd5b610d4981600154611c9590919063ffffffff16565b60018190555060008060008473ffffffffffffffffffffffffffffffffffffffff1673ffffffffffffffffffffffffffffffffffffffff168152602001908152602001600020819055508173ffffffffffffffffffffffffffffffffffffffff166108fc829081150290604051600060405180830381858888f193505050501515610dd057fe5b5050565b60006004600083815260200190815260200160002060060160029054906101000a900460ff169050919050565b600082610e0d81611ae1565b73ffffffffffffffffffffffffffffffffffffffff163373ffffffffffffffffffffffffffffffffffffffff16141515610e4657600080fd5b836004600082815260200190815260200160002060060160029054906101000a900460ff168015610e9857506004600082815260200190815260200160002060060160039054906101000a900460ff16155b1515610ea357600080fd5b6004600086815260200190815260200160002060060160009054906101000a900460ff16925060008460ff1610158015610ee1575060298460ff1611155b1515610eec57600080fd5b60006002811115610ef957fe5b600460008781526020019081526020016000206004018560ff16602a81101515610f1f57fe5b602091828204019190069054906101000a900460ff166002811115610f4057fe5b141515610f4c57600080fd5b60078460ff16101515610fbe5760006002811115610f6657fe5b600460008781526020019081526020016000206004016007860360ff16602a81101515610f8f57fe5b602091828204019190069054906101000a900460ff166002811115610fb057fe5b14151515610fbd57600080fd5b5b82600460008781526020019081526020016000206004018560ff16602a81101515610fe557fe5b602091828204019190066101000a81548160ff0219169083600281111561100857fe5b02179055506001600281111561101a57fe5b83600281111561102657fe5b14156110695760026004600087815260200190815260200160002060060160006101000a81548160ff0219169083600281111561105f57fe5b02179055506110a2565b60016004600087815260200190815260200160002060060160006101000a81548160ff0219169083600281111561109c57fe5b02179055505b7f524366571c14a79b0a13271deb2f90e50a95e86fe8f069fbedcf8a9ad5441ea0858486604051808481526020018360028111156110dc57fe5b60ff1681526020018260ff1660ff168152602001935050505060405180910390a15050505050565b60003373ffffffffffffffffffffffffffffffffffffffff168273ffffffffffffffffffffffffffffffffffffffff161415151561114157600080fd5b611149611cae565b905060016004600083815260200190815260200160002060060160016101000a81548160ff021916908315150217905550816004600083815260200190815260200160002060030160006101000a81548173ffffffffffffffffffffffffffffffffffffffff021916908373ffffffffffffffffffffffffffffffffffffffff1602179055506111d881611cc6565b5050565b60006004600083815260200190815260200160002060060160019054906101000a900460ff169050919050565b60006004600083815260200190815260200160002060060160009054906101000a900460ff169050919050565b60006004600083815260200190815260200160002060020160009054906101000a900473ffffffffffffffffffffffffffffffffffffffff169050919050565b8060006004600083815260200190815260200160002060020160009054906101000a900473ffffffffffffffffffffffffffffffffffffffff1673ffffffffffffffffffffffffffffffffffffffff16141515156112d357600080fd5b816004600082815260200190815260200160002060060160029054906101000a900460ff1615801561132657506004600082815260200190815260200160002060060160039054906101000a900460ff16155b151561133157600080fd5b826004600082815260200190815260200160002060020160009054906101000a900473ffffffffffffffffffffffffffffffffffffffff1673ffffffffffffffffffffffffffffffffffffffff163373ffffffffffffffffffffffffffffffffffffffff161415156113a257600080fd5b60016004600086815260200190815260200160002060060160026101000a81548160ff02191690831515021790555060016004600086815260200190815260200160002060060160036101000a81548160ff021916908315150217905550611420336004600087815260200190815260200160002060000154611d7d565b7f205fbe38a5a5dba05069ab167682b12bbeabc051d0d6ee955ec20568107472ca846040518082815260200191505060405180910390a150505050565b60008060008091505b60048260ff161015611540576000848360ff1660048110151561148557fe5b602002015160ff16101580156114b457506029848360ff166004811015156114a957fe5b602002015160ff1611155b15156114bf57600080fd5b8460028111156114cb57fe5b60046000888152602001908152602001600020600401858460ff166004811015156114f257fe5b602002015160ff16602a8110151561150657fe5b602091828204019190069054906101000a900460ff16600281111561152757fe5b14151561153357600080fd5b8180600101925050611466565b83600160048110151561154f57fe5b602002015160ff1684600060048110151561156657fe5b602002015160ff1610151561157a57600080fd5b83600060048110151561158957fe5b602002015184600160048110151561159d57fe5b60200201510390508060ff168460016004811015156115b857fe5b60200201518560026004811015156115cc57fe5b60200201510360ff1614801561160f57508060ff168460026004811015156115f057fe5b602002015185600360048110151561160457fe5b60200201510360ff16145b151561161a57600080fd5b60018160ff16148061162f575060088160ff16145b1561169157600784600360048110151561164557fe5b602002015160ff1681151561165657fe5b0660ff16600785600060048110151561166b57fe5b602002015160ff1681151561167c57fe5b0660ff1610151561168c57600080fd5b611712565b60068160ff1614156116fa5760078460006004811015156116ae57fe5b602002015160ff168115156116bf57fe5b0660ff1660078560036004811015156116d457fe5b602002015160ff168115156116e557fe5b0660ff161015156116f557600080fd5b611711565b60078160ff16141561170b57611710565b600080fd5b5b5b6001925050509392505050565b60006020528060005260406000206000915090505481565b6000611741611cae565b905061174c81611cc6565b50565b8060006004600083815260200190815260200160002060020160009054906101000a900473ffffffffffffffffffffffffffffffffffffffff1673ffffffffffffffffffffffffffffffffffffffff16141515156117ac57600080fd5b816004600082815260200190815260200160002060060160029054906101000a900460ff161580156117ff57506004600082815260200190815260200160002060060160039054906101000a900460ff16155b151561180a57600080fd5b3373ffffffffffffffffffffffffffffffffffffffff1661182a84611236565b73ffffffffffffffffffffffffffffffffffffffff161415151561184d57600080fd5b611856836108f8565b3414151561186357600080fd5b61186c836111dc565b156118e6573373ffffffffffffffffffffffffffffffffffffffff166004600085815260200190815260200160002060030160009054906101000a900473ffffffffffffffffffffffffffffffffffffffff1673ffffffffffffffffffffffffffffffffffffffff161415156118e157600080fd5b61193c565b336004600085815260200190815260200160002060030160006101000a81548173ffffffffffffffffffffffffffffffffffffffff021916908373ffffffffffffffffffffffffffffffffffffffff1602179055505b42600460008581526020019081526020016000206001018190555060016004600085815260200190815260200160002060060160026101000a81548160ff02191690831515021790555060016004600085815260200190815260200160002060060160006101000a81548160ff021916908360028111156119b957fe5b02179055507fb67b12ea4e48bdaf33fea4567f20c1b9d1e570f99cfbe8b3c359d2e1ac352dca836040518082815260200191505060405180910390a1505050565b8060025460046000838152602001908152602001600020600101540142111515611a2357600080fd5b81611a2d81611e2f565b73ffffffffffffffffffffffffffffffffffffffff163373ffffffffffffffffffffffffffffffffffffffff16141515611a6657600080fd5b826004600082815260200190815260200160002060060160029054906101000a900460ff168015611ab857506004600082815260200190815260200160002060060160039054906101000a900460ff16155b1515611ac357600080fd5b611ad584611ad086611e2f565b611bce565b50505050565b60025481565b6000806004600084815260200190815260200160002060060160009054906101000a900460ff16905060016002811115611b1757fe5b816002811115611b2357fe5b1415611b67576004600084815260200190815260200160002060020160009054906101000a900473ffffffffffffffffffffffffffffffffffffffff169150611bc8565b600280811115611b7357fe5b816002811115611b7f57fe5b1415611bc3576004600084815260200190815260200160002060030160009054906101000a900473ffffffffffffffffffffffffffffffffffffffff169150611bc8565b600080fd5b50919050565b600060016004600085815260200190815260200160002060060160036101000a81548160ff02191690831515021790555060026004600085815260200190815260200160002060000154029050611c258282611d7d565b7f2799f7db9b662090ba734216b411a1786edb43fd4d384f1eb7f332e824347bf98383604051808381526020018273ffffffffffffffffffffffffffffffffffffffff1673ffffffffffffffffffffffffffffffffffffffff1681526020019250505060405180910390a1505050565b6000828211151515611ca357fe5b818303905092915050565b60006003600081548092919060010191905055905090565b346004600083815260200190815260200160002060000181905550336004600083815260200190815260200160002060020160006101000a81548173ffffffffffffffffffffffffffffffffffffffff021916908373ffffffffffffffffffffffffffffffffffffffff1602179055507feaf0b95c5849c1d74de24977c84c7991623dd2d4645913aa4dc5866d53a0b14581600060405180838152602001821515151581526020019250505060405180910390a150565b611dce816000808573ffffffffffffffffffffffffffffffffffffffff1673ffffffffffffffffffffffffffffffffffffffff16815260200190815260200160002054611f1c90919063ffffffff16565b6000808473ffffffffffffffffffffffffffffffffffffffff1673ffffffffffffffffffffffffffffffffffffffff16815260200190815260200160002081905550611e2581600154611f1c90919063ffffffff16565b6001819055505050565b6000806004600084815260200190815260200160002060060160009054906101000a900460ff16905060016002811115611e6557fe5b816002811115611e7157fe5b1415611eb5576004600084815260200190815260200160002060030160009054906101000a900473ffffffffffffffffffffffffffffffffffffffff169150611f16565b600280811115611ec157fe5b816002811115611ecd57fe5b1415611f11576004600084815260200190815260200160002060020160009054906101000a900473ffffffffffffffffffffffffffffffffffffffff169150611f16565b600080fd5b50919050565b6000808284019050838110151515611f3057fe5b8091505092915050565b61054060405190810160405280602a905b60006002811115611f5857fe5b815260200190600190039081611f4b57905050905600a165627a7a72305820868bd404baa1be61325d3f163dc7f353e611decbf7425c0a4455112fb162bed60029",
  "source": "pragma solidity ^0.4.18;\r\n\r\nimport \"../node_modules/zeppelin-solidity/contracts/payment/PullPayment.sol\";\r\n//function asyncSend(address dest, uint256 amount) internal;\r\n//function withdrawPayments() public;\r\n\r\ncontract ConnectFour is PullPayment {\r\n\r\n  enum BoardPiece {NONE, RED, BLACK}\r\n\r\n  //Encapsulates total game lead.\r\n  struct GameState {\r\n    uint bid; //How much each player bids\r\n    uint lastTimePlayed; //When was the last move made?\r\n\r\n    address playerOneRed;\r\n    address playerTwoBlack;\r\n\r\n    //Board is 7 columns by 6 rows\r\n    //0 is the bottom-left corner of the board\r\n    //1 is the second from the left on the bottom\r\n    //6 is the bottom-right corner\r\n    //7 is the left on the second-to-bottom row\r\n    //41 is the top-right\r\n    BoardPiece[42] board;\r\n\r\n    BoardPiece whoseTurn;\r\n\r\n    bool restricted;\r\n    bool isStarted;\r\n    bool gameOver;\r\n  }\r\n\r\n  event logGameCreated(uint gameId, bool restricted);\r\n  event logGameStart(uint gameId);\r\n  event logMoveMade(uint gameId, BoardPiece who, uint8 position);\r\n  event logGameEnd(uint gameId, address winner);\r\n  event logGameCancel(uint gameId);\r\n\r\n  //How long someone has to move before the other player can claim victory\r\n  uint public moveTimeout;\r\n\r\n  //Counter so each game has a unique ID\r\n  uint nextID;\r\n\r\n  //The state of all the games\r\n  mapping (uint => GameState) public games;\r\n\r\n  modifier onlyGameExists(uint gameId) {\r\n    require(games[gameId].playerOneRed != 0);\r\n    _;\r\n  }\r\n\r\n  modifier onlyWhileNotStarted(uint gameId) {\r\n    require(!games[gameId].isStarted && !games[gameId].gameOver);\r\n    _;\r\n  }\r\n\r\n  modifier onlyWhilePlaying(uint gameId) {\r\n    require(games[gameId].isStarted && !games[gameId].gameOver);\r\n    _;\r\n  }\r\n\r\n  modifier onlyPlayers(uint gameId) {\r\n    require(msg.sender == games[gameId].playerOneRed\r\n      || msg.sender == games[gameId].playerTwoBlack);\r\n      _;\r\n  }\r\n\r\n  //Only the player whose turn it is\r\n  modifier onlyActivePlayer(uint gameId) {\r\n    require(msg.sender == getActivePlayer(gameId));\r\n    _;\r\n  }\r\n\r\n  //Only the player whose turn it isn't\r\n  modifier onlyInactivePlayer(uint gameId) {\r\n    require(msg.sender == getInactivePlayer(gameId));\r\n    _;\r\n  }\r\n\r\n  modifier onlyGameCreator(uint gameId) {\r\n    require(msg.sender == games[gameId].playerOneRed);\r\n    _;\r\n  }\r\n\r\n  modifier onlyAfterTimeout(uint gameId) {\r\n    require(now > games[gameId].lastTimePlayed + moveTimeout);\r\n    _;\r\n  }\r\n\r\n  function ConnectFour(uint timeout) public {\r\n    moveTimeout = timeout;\r\n  }\r\n\r\n  function() public {\r\n    revert();\r\n  }\r\n\r\n  //Creates a game with a unique ID. Anyone can join this game.\r\n  function createNewGame() external payable {\r\n    uint gameId = createUniqueId();\r\n    createNewGameEntry(gameId);\r\n  }\r\n\r\n  //Creates a game where only a specified player can join.\r\n  function createNewRestrictedGame(address playerTwo) external payable {\r\n    require(playerTwo != msg.sender);\r\n    uint gameId = createUniqueId();\r\n    games[gameId].restricted = true;\r\n    games[gameId].playerTwoBlack = playerTwo;\r\n    createNewGameEntry(gameId);\r\n  }\r\n\r\n  //Join a game that another person has created.\r\n  function joinGame(uint gameId) external payable\r\n    onlyGameExists(gameId)\r\n    onlyWhileNotStarted(gameId)\r\n  {\r\n    require(getPlayerOne(gameId) != msg.sender);\r\n    require(msg.value == getBid(gameId));\r\n\r\n    if (getRestricted(gameId)) {\r\n      require(games[gameId].playerTwoBlack == msg.sender);\r\n    } else {\r\n      games[gameId].playerTwoBlack = msg.sender;\r\n    }\r\n\r\n    games[gameId].lastTimePlayed = now;\r\n    games[gameId].isStarted = true;\r\n    games[gameId].whoseTurn = BoardPiece.RED;\r\n    logGameStart(gameId);\r\n  }\r\n\r\n  //If nobody has joined your game, you can cancel and get money back\r\n  function cancelCreatedGame(uint gameId)\r\n    external\r\n    onlyGameExists(gameId)\r\n    onlyWhileNotStarted(gameId)\r\n    onlyGameCreator(gameId)\r\n  {\r\n    games[gameId].isStarted = true;\r\n    games[gameId].gameOver = true;\r\n\r\n    asyncSend(msg.sender, games[gameId].bid);\r\n\r\n    logGameCancel(gameId);\r\n  }\r\n\r\n  function forfeit(uint gameId)\r\n    external\r\n    onlyWhilePlaying(gameId)\r\n    onlyPlayers(gameId)\r\n  {\r\n    if (msg.sender == games[gameId].playerOneRed) {\r\n      gameEnd(gameId, games[gameId].playerTwoBlack);\r\n    } else if (msg.sender == games[gameId].playerTwoBlack) {\r\n      gameEnd(gameId, games[gameId].playerOneRed);\r\n    } else {\r\n      //This should never happen\r\n      revert();\r\n    }\r\n  }\r\n\r\n  function claimTimeoutVictory(uint gameId)\r\n    external\r\n    onlyAfterTimeout(gameId)\r\n    onlyInactivePlayer(gameId)\r\n    onlyWhilePlaying(gameId)\r\n  {\r\n    gameEnd(gameId, getInactivePlayer(gameId));\r\n  }\r\n\r\n  //The pieces in toClaim must be sorted positions, least to greatest\r\n  function makeMoveAndClaimVictory(uint gameId, uint8 moveToMake, uint8[4] claim)\r\n    external\r\n    onlyActivePlayer(gameId)\r\n    onlyWhilePlaying(gameId)\r\n  {\r\n    BoardPiece player = games[gameId].whoseTurn;\r\n    address playerAddress = getActivePlayer(gameId);\r\n\r\n    makeMove(gameId, moveToMake);\r\n\r\n    require(checkHasWon(gameId, player, claim));\r\n\r\n    gameEnd(gameId,playerAddress);\r\n  }\r\n\r\n  //If the move is valid, make a move on the board\r\n  function makeMove(uint gameId, uint8 position)\r\n    public\r\n    onlyActivePlayer(gameId)\r\n    onlyWhilePlaying(gameId)\r\n  {\r\n    BoardPiece player = games[gameId].whoseTurn;\r\n\r\n    require(position >= 0 && position <= 41);\r\n    require(games[gameId].board[position] == BoardPiece.NONE);\r\n\r\n    if (position >= 7){\r\n      require(games[gameId].board[position - 7] != BoardPiece.NONE);\r\n    }\r\n\r\n    games[gameId].board[position] = player;\r\n\r\n    if (player == BoardPiece.RED) {\r\n      games[gameId].whoseTurn = BoardPiece.BLACK;\r\n    } else {\r\n      games[gameId].whoseTurn = BoardPiece.RED;\r\n    }\r\n\r\n    logMoveMade(gameId, player, position);\r\n  }\r\n\r\n  //Is a set of four pieces a valid victory\r\n  function checkHasWon(uint gameId, BoardPiece who, uint8[4] moves) constant public returns(bool){\r\n    for (uint8 i = 0; i<4; i++){\r\n      require(moves[i] >= 0 && moves[i] <= 41);\r\n      require(games[gameId].board[moves[i]] == who);\r\n    }\r\n\r\n    //First 2 pieces must be in increasing order\r\n    require(moves[0] < moves[1]);\r\n    uint8 diff = moves[1] - moves[0];\r\n\r\n    //All other pieces must line up the same as the first 2 (and also be increasing)\r\n    require(moves[2] - moves[1] == diff &&\r\n            moves[3] - moves[2] == diff);\r\n\r\n    //Make sure pieces are in a valid arrangement\r\n    //And prevent wrap-around\r\n    if (diff == 1 || diff == 8){\r\n      //The last piace should be further to the right than the first one\r\n      require(moves[0] % 7 < moves[3] % 7);\r\n    } else if (diff == 6){\r\n      //The last piece should be further to the left than the first one\r\n      require(moves[3] % 7 < moves[0] % 7);\r\n    } else if (diff == 7){\r\n      //Wrap-around isn't a problem with vertical pieces\r\n    } else{\r\n      revert();\r\n    }\r\n\r\n    return true;\r\n\r\n  }\r\n\r\n  //Accessor functions per game\r\n  function getBid(uint gameId) constant public returns(uint) {\r\n    return games[gameId].bid;\r\n  }\r\n\r\n  function getLastTimePlayed(uint gameId) constant public returns(uint){\r\n    return games[gameId].lastTimePlayed;\r\n  }\r\n\r\n  function getPlayerOne(uint gameId) constant public returns(address){\r\n    return games[gameId].playerOneRed;\r\n  }\r\n\r\n  function getPlayerTwo(uint gameId) constant public returns(address){\r\n    return games[gameId].playerTwoBlack;\r\n  }\r\n\r\n  function getBoard(uint gameId) constant public returns(BoardPiece[42]){\r\n    return games[gameId].board;\r\n  }\r\n\r\n  function getWhoseTurn(uint gameId) constant public returns(BoardPiece){\r\n    return games[gameId].whoseTurn;\r\n  }\r\n\r\n  function getRestricted(uint gameId) constant public returns(bool){\r\n    return games[gameId].restricted;\r\n  }\r\n\r\n  function getIsStarted(uint gameId) constant public returns(bool){\r\n    return games[gameId].isStarted;\r\n  }\r\n\r\n  function getGameOver(uint gameId) constant public returns(bool){\r\n    return games[gameId].gameOver;\r\n  }\r\n\r\n  //Player that is currently going\r\n  function getActivePlayer(uint gameId) constant internal returns(address){\r\n    BoardPiece player = games[gameId].whoseTurn;\r\n\r\n    if (player == BoardPiece.RED) {\r\n      return games[gameId].playerOneRed;\r\n    } else if (player == BoardPiece.BLACK) {\r\n      return games[gameId].playerTwoBlack;\r\n    } else {\r\n      revert();\r\n    }\r\n  }\r\n\r\n  //Player that is currently not going\r\n  function getInactivePlayer(uint gameId) constant internal returns(address){\r\n    BoardPiece player = games[gameId].whoseTurn;\r\n\r\n    if (player == BoardPiece.RED) {\r\n      return games[gameId].playerTwoBlack;\r\n    } else if (player == BoardPiece.BLACK) {\r\n      return games[gameId].playerOneRed;\r\n    } else {\r\n      revert();\r\n    }\r\n  }\r\n\r\n  //Increment the game ID and return it\r\n  function createUniqueId() private returns(uint) {\r\n    return nextID++;\r\n  }\r\n\r\n  //Helper function for game creation\r\n  function createNewGameEntry(uint gameId) private{\r\n    games[gameId].bid = msg.value;\r\n    games[gameId].playerOneRed = msg.sender;\r\n    logGameCreated(gameId, false);\r\n  }\r\n\r\n  //Helper function for game end\r\n  function gameEnd(uint gameId, address winner) private {\r\n    games[gameId].gameOver = true;\r\n    uint256 payout = games[gameId].bid * 2;\r\n\r\n    asyncSend(winner, payout);\r\n\r\n    logGameEnd(gameId, winner);\r\n  }\r\n\r\n}\r\n",
  "sourcePath": "C:\\Users\\dmelc\\ethdev\\c4\\contracts\\ConnectFour.sol",
  "compiler": {
    "name": "solc",
    "version": "0.4.18+commit.9cf6e910.Emscripten.clang"
  },
  "schemaVersion": "1.0.1",
  "updatedAt": "2018-01-02T06:58:23.067Z"
}