{
  "contractName": "ConnectFour",
  "abi": [
    {
      "constant": true,
      "inputs": [],
      "name": "totalPayments",
      "outputs": [
        {
          "name": "",
          "type": "uint256"
        }
      ],
      "payable": false,
      "stateMutability": "view",
      "type": "function"
    },
    {
      "constant": true,
      "inputs": [
        {
          "name": "gameId",
          "type": "uint256"
        }
      ],
      "name": "getLastTimePlayed",
      "outputs": [
        {
          "name": "",
          "type": "uint256"
        }
      ],
      "payable": false,
      "stateMutability": "view",
      "type": "function"
    },
    {
      "constant": true,
      "inputs": [
        {
          "name": "gameId",
          "type": "uint256"
        }
      ],
      "name": "getBid",
      "outputs": [
        {
          "name": "",
          "type": "uint256"
        }
      ],
      "payable": false,
      "stateMutability": "view",
      "type": "function"
    },
    {
      "constant": true,
      "inputs": [
        {
          "name": "gameId",
          "type": "uint256"
        }
      ],
      "name": "getPlayerTwo",
      "outputs": [
        {
          "name": "",
          "type": "address"
        }
      ],
      "payable": false,
      "stateMutability": "view",
      "type": "function"
    },
    {
      "constant": false,
      "inputs": [
        {
          "name": "gameId",
          "type": "uint256"
        }
      ],
      "name": "forfeit",
      "outputs": [],
      "payable": false,
      "stateMutability": "nonpayable",
      "type": "function"
    },
    {
      "constant": true,
      "inputs": [
        {
          "name": "gameId",
          "type": "uint256"
        }
      ],
      "name": "getBoard",
      "outputs": [
        {
          "name": "",
          "type": "uint8[42]"
        }
      ],
      "payable": false,
      "stateMutability": "view",
      "type": "function"
    },
    {
      "constant": true,
      "inputs": [
        {
          "name": "gameId",
          "type": "uint256"
        }
      ],
      "name": "getGameOver",
      "outputs": [
        {
          "name": "",
          "type": "bool"
        }
      ],
      "payable": false,
      "stateMutability": "view",
      "type": "function"
    },
    {
      "constant": false,
      "inputs": [],
      "name": "withdrawPayments",
      "outputs": [],
      "payable": false,
      "stateMutability": "nonpayable",
      "type": "function"
    },
    {
      "constant": true,
      "inputs": [
        {
          "name": "gameId",
          "type": "uint256"
        }
      ],
      "name": "getIsStarted",
      "outputs": [
        {
          "name": "",
          "type": "bool"
        }
      ],
      "payable": false,
      "stateMutability": "view",
      "type": "function"
    },
    {
      "constant": false,
      "inputs": [
        {
          "name": "playerTwo",
          "type": "address"
        }
      ],
      "name": "createNewRestrictedGame",
      "outputs": [],
      "payable": true,
      "stateMutability": "payable",
      "type": "function"
    },
    {
      "constant": true,
      "inputs": [
        {
          "name": "gameId",
          "type": "uint256"
        }
      ],
      "name": "getRestricted",
      "outputs": [
        {
          "name": "",
          "type": "bool"
        }
      ],
      "payable": false,
      "stateMutability": "view",
      "type": "function"
    },
    {
      "constant": true,
      "inputs": [
        {
          "name": "gameId",
          "type": "uint256"
        }
      ],
      "name": "getWhoseTurn",
      "outputs": [
        {
          "name": "",
          "type": "uint8"
        }
      ],
      "payable": false,
      "stateMutability": "view",
      "type": "function"
    },
    {
      "constant": true,
      "inputs": [
        {
          "name": "gameId",
          "type": "uint256"
        }
      ],
      "name": "getPlayerOne",
      "outputs": [
        {
          "name": "",
          "type": "address"
        }
      ],
      "payable": false,
      "stateMutability": "view",
      "type": "function"
    },
    {
      "constant": true,
      "inputs": [
        {
          "name": "",
          "type": "address"
        }
      ],
      "name": "payments",
      "outputs": [
        {
          "name": "",
          "type": "uint256"
        }
      ],
      "payable": false,
      "stateMutability": "view",
      "type": "function"
    },
    {
      "constant": false,
      "inputs": [],
      "name": "createNewGame",
      "outputs": [],
      "payable": true,
      "stateMutability": "payable",
      "type": "function"
    },
    {
      "constant": false,
      "inputs": [
        {
          "name": "gameId",
          "type": "uint256"
        }
      ],
      "name": "joinGame",
      "outputs": [],
      "payable": true,
      "stateMutability": "payable",
      "type": "function"
    },
    {
      "constant": false,
      "inputs": [
        {
          "name": "gameId",
          "type": "uint256"
        }
      ],
      "name": "claimTimeoutVictory",
      "outputs": [],
      "payable": false,
      "stateMutability": "nonpayable",
      "type": "function"
    },
    {
      "constant": true,
      "inputs": [],
      "name": "moveTimeout",
      "outputs": [
        {
          "name": "",
          "type": "uint256"
        }
      ],
      "payable": false,
      "stateMutability": "view",
      "type": "function"
    },
    {
      "inputs": [
        {
          "name": "timeout",
          "type": "uint256"
        }
      ],
      "payable": false,
      "stateMutability": "nonpayable",
      "type": "constructor"
    },
    {
      "anonymous": false,
      "inputs": [
        {
          "indexed": false,
          "name": "gameId",
          "type": "uint256"
        },
        {
          "indexed": false,
          "name": "restricted",
          "type": "bool"
        }
      ],
      "name": "logGameCreated",
      "type": "event"
    },
    {
      "anonymous": false,
      "inputs": [
        {
          "indexed": false,
          "name": "gameId",
          "type": "uint256"
        }
      ],
      "name": "logGameStart",
      "type": "event"
    },
    {
      "anonymous": false,
      "inputs": [
        {
          "indexed": false,
          "name": "gameId",
          "type": "uint256"
        },
        {
          "indexed": false,
          "name": "who",
          "type": "uint8"
        },
        {
          "indexed": false,
          "name": "position",
          "type": "uint8"
        }
      ],
      "name": "logMoveMade",
      "type": "event"
    },
    {
      "anonymous": false,
      "inputs": [
        {
          "indexed": false,
          "name": "gameId",
          "type": "uint256"
        },
        {
          "indexed": false,
          "name": "winner",
          "type": "address"
        }
      ],
      "name": "logGameEnd",
      "type": "event"
    }
  ],
  "bytecode": "0x6060604052341561000f57600080fd5b6040516020806113178339810160405280805190602001909190505080600281905550506112d5806100426000396000f3006060604052600436106100fb576000357c0100000000000000000000000000000000000000000000000000000000900463ffffffff1680625b4487146101005780630628b6ba146101295780633c889e6f146101605780633d412d0f146101975780633ed546ab146101fa57806345e09e541461021d5780635e0d8a261461027c5780636103d70b146102b75780637e24c66b146102cc57806385870dcf146103075780639e693e5d14610335578063a100724c14610370578063a960f05b146103b5578063e2982c2114610418578063eb87eb5e14610465578063efaa55a01461046f578063eff53a6914610487578063fdb894ac146104aa575b600080fd5b341561010b57600080fd5b6101136104d3565b6040518082815260200191505060405180910390f35b341561013457600080fd5b61014a60048080359060200190919050506104d9565b6040518082815260200191505060405180910390f35b341561016b57600080fd5b61018160048080359060200190919050506104f9565b6040518082815260200191505060405180910390f35b34156101a257600080fd5b6101b86004808035906020019091905050610519565b604051808273ffffffffffffffffffffffffffffffffffffffff1673ffffffffffffffffffffffffffffffffffffffff16815260200191505060405180910390f35b341561020557600080fd5b61021b6004808035906020019091905050610559565b005b341561022857600080fd5b61023e60048080359060200190919050506107fc565b6040518082602a60200280838360005b8381101561026957808201518184015260208101905061024e565b5050505090500191505060405180910390f35b341561028757600080fd5b61029d600480803590602001909190505061088b565b604051808215151515815260200191505060405180910390f35b34156102c257600080fd5b6102ca6108b8565b005b34156102d757600080fd5b6102ed60048080359060200190919050506109d5565b604051808215151515815260200191505060405180910390f35b610333600480803573ffffffffffffffffffffffffffffffffffffffff16906020019091905050610a02565b005b341561034057600080fd5b6103566004808035906020019091905050610ada565b604051808215151515815260200191505060405180910390f35b341561037b57600080fd5b6103916004808035906020019091905050610b07565b604051808260028111156103a157fe5b60ff16815260200191505060405180910390f35b34156103c057600080fd5b6103d66004808035906020019091905050610b34565b604051808273ffffffffffffffffffffffffffffffffffffffff1673ffffffffffffffffffffffffffffffffffffffff16815260200191505060405180910390f35b341561042357600080fd5b61044f600480803573ffffffffffffffffffffffffffffffffffffffff16906020019091905050610b74565b6040518082815260200191505060405180910390f35b61046d610b8c565b005b6104856004808035906020019091905050610ba4565b005b341561049257600080fd5b6104a86004808035906020019091905050610e22565b005b34156104b557600080fd5b6104bd610f03565b6040518082815260200191505060405180910390f35b60015481565b600060046000838152602001908152602001600020600101549050919050565b600060046000838152602001908152602001600020600001549050919050565b60006004600083815260200190815260200160002060030160009054906101000a900473ffffffffffffffffffffffffffffffffffffffff169050919050565b806004600082815260200190815260200160002060060160029054906101000a900460ff1680156105ab57506004600082815260200190815260200160002060060160039054906101000a900460ff16155b15156105b657600080fd5b816004600082815260200190815260200160002060020160009054906101000a900473ffffffffffffffffffffffffffffffffffffffff1673ffffffffffffffffffffffffffffffffffffffff163373ffffffffffffffffffffffffffffffffffffffff16148061068857506004600082815260200190815260200160002060030160009054906101000a900473ffffffffffffffffffffffffffffffffffffffff1673ffffffffffffffffffffffffffffffffffffffff163373ffffffffffffffffffffffffffffffffffffffff16145b151561069357600080fd5b6004600084815260200190815260200160002060020160009054906101000a900473ffffffffffffffffffffffffffffffffffffffff1673ffffffffffffffffffffffffffffffffffffffff163373ffffffffffffffffffffffffffffffffffffffff1614156107425761073d836004600086815260200190815260200160002060030160009054906101000a900473ffffffffffffffffffffffffffffffffffffffff16610f09565b6107f7565b6004600084815260200190815260200160002060030160009054906101000a900473ffffffffffffffffffffffffffffffffffffffff1673ffffffffffffffffffffffffffffffffffffffff163373ffffffffffffffffffffffffffffffffffffffff1614156107f1576107ec836004600086815260200190815260200160002060020160009054906101000a900473ffffffffffffffffffffffffffffffffffffffff16610f09565b6107f6565b600080fd5b5b505050565b610804611275565b60046000838152602001908152602001600020600401602a806020026040519081016040528092919082602a801561087f576020028201916000905b82829054906101000a900460ff16600281111561085957fe5b815260200190600101906020826000010492830192600103820291508084116108405790505b50505050509050919050565b60006004600083815260200190815260200160002060060160039054906101000a900460ff169050919050565b6000803391506000808373ffffffffffffffffffffffffffffffffffffffff1673ffffffffffffffffffffffffffffffffffffffff1681526020019081526020016000205490506000811415151561090f57600080fd5b803073ffffffffffffffffffffffffffffffffffffffff16311015151561093557600080fd5b61094a81600154610fd090919063ffffffff16565b60018190555060008060008473ffffffffffffffffffffffffffffffffffffffff1673ffffffffffffffffffffffffffffffffffffffff168152602001908152602001600020819055508173ffffffffffffffffffffffffffffffffffffffff166108fc829081150290604051600060405180830381858888f1935050505015156109d157fe5b5050565b60006004600083815260200190815260200160002060060160029054906101000a900460ff169050919050565b60003373ffffffffffffffffffffffffffffffffffffffff168273ffffffffffffffffffffffffffffffffffffffff1614151515610a3f57600080fd5b610a47610fe9565b905060016004600083815260200190815260200160002060060160016101000a81548160ff021916908315150217905550816004600083815260200190815260200160002060030160006101000a81548173ffffffffffffffffffffffffffffffffffffffff021916908373ffffffffffffffffffffffffffffffffffffffff160217905550610ad681611001565b5050565b60006004600083815260200190815260200160002060060160019054906101000a900460ff169050919050565b60006004600083815260200190815260200160002060060160009054906101000a900460ff169050919050565b60006004600083815260200190815260200160002060020160009054906101000a900473ffffffffffffffffffffffffffffffffffffffff169050919050565b60006020528060005260406000206000915090505481565b6000610b96610fe9565b9050610ba181611001565b50565b8060006004600083815260200190815260200160002060020160009054906101000a900473ffffffffffffffffffffffffffffffffffffffff1673ffffffffffffffffffffffffffffffffffffffff1614151515610c0157600080fd5b816004600082815260200190815260200160002060060160029054906101000a900460ff16151515610c3257600080fd5b3373ffffffffffffffffffffffffffffffffffffffff16610c5284610b34565b73ffffffffffffffffffffffffffffffffffffffff1614151515610c7557600080fd5b610c7e836104f9565b34141515610c8b57600080fd5b610c9483610ada565b15610d0e573373ffffffffffffffffffffffffffffffffffffffff166004600085815260200190815260200160002060030160009054906101000a900473ffffffffffffffffffffffffffffffffffffffff1673ffffffffffffffffffffffffffffffffffffffff16141515610d0957600080fd5b610d64565b336004600085815260200190815260200160002060030160006101000a81548173ffffffffffffffffffffffffffffffffffffffff021916908373ffffffffffffffffffffffffffffffffffffffff1602179055505b42600460008581526020019081526020016000206001018190555060016004600085815260200190815260200160002060060160026101000a81548160ff02191690831515021790555060016004600085815260200190815260200160002060060160006101000a81548160ff02191690836002811115610de157fe5b02179055507fb67b12ea4e48bdaf33fea4567f20c1b9d1e570f99cfbe8b3c359d2e1ac352dca836040518082815260200191505060405180910390a1505050565b8060025460046000838152602001908152602001600020600101540142111515610e4b57600080fd5b81610e55816110b8565b73ffffffffffffffffffffffffffffffffffffffff163373ffffffffffffffffffffffffffffffffffffffff16141515610e8e57600080fd5b826004600082815260200190815260200160002060060160029054906101000a900460ff168015610ee057506004600082815260200190815260200160002060060160039054906101000a900460ff16155b1515610eeb57600080fd5b610efd84610ef8866110b8565b610f09565b50505050565b60025481565b600060016004600085815260200190815260200160002060060160036101000a81548160ff02191690831515021790555060026004600085815260200190815260200160002060000154029050610f6082826111a5565b7f2799f7db9b662090ba734216b411a1786edb43fd4d384f1eb7f332e824347bf98383604051808381526020018273ffffffffffffffffffffffffffffffffffffffff1673ffffffffffffffffffffffffffffffffffffffff1681526020019250505060405180910390a1505050565b6000828211151515610fde57fe5b818303905092915050565b60006003600081548092919060010191905055905090565b346004600083815260200190815260200160002060000181905550336004600083815260200190815260200160002060020160006101000a81548173ffffffffffffffffffffffffffffffffffffffff021916908373ffffffffffffffffffffffffffffffffffffffff1602179055507feaf0b95c5849c1d74de24977c84c7991623dd2d4645913aa4dc5866d53a0b14581600060405180838152602001821515151581526020019250505060405180910390a150565b6000806004600084815260200190815260200160002060060160009054906101000a900460ff169050600160028111156110ee57fe5b8160028111156110fa57fe5b141561113e576004600084815260200190815260200160002060030160009054906101000a900473ffffffffffffffffffffffffffffffffffffffff16915061119f565b60028081111561114a57fe5b81600281111561115657fe5b141561119a576004600084815260200190815260200160002060020160009054906101000a900473ffffffffffffffffffffffffffffffffffffffff16915061119f565b600080fd5b50919050565b6111f6816000808573ffffffffffffffffffffffffffffffffffffffff1673ffffffffffffffffffffffffffffffffffffffff1681526020019081526020016000205461125790919063ffffffff16565b6000808473ffffffffffffffffffffffffffffffffffffffff1673ffffffffffffffffffffffffffffffffffffffff1681526020019081526020016000208190555061124d8160015461125790919063ffffffff16565b6001819055505050565b600080828401905083811015151561126b57fe5b8091505092915050565b61054060405190810160405280602a905b6000600281111561129357fe5b81526020019060019003908161128657905050905600a165627a7a72305820005f8962ce09e12a049da0fff3b6a17682bf7d195414421d19ed6f984c26f43b0029",
  "source": "pragma solidity ^0.4.18;\n\nimport '../node_modules/zeppelin-solidity/contracts/payment/PullPayment.sol';\n//function asyncSend(address dest, uint256 amount) internal;\n//function withdrawPayments() public;\n\ncontract ConnectFour is PullPayment {\n\n  enum BoardPiece {NONE, RED, BLACK}\n  struct GameState {\n    uint bid; //How much each player bids\n    uint lastTimePlayed; //When was the last move made?\n\n    address playerOneRed;\n    address playerTwoBlack;\n\n    //Board is 7 columns by 6 rows\n    //0 is the bottom-left corner of the board\n    //1 is the second from the left on the bottom\n    //6 is the botto-right corner\n    //7 is the left on the second-to-bottom row\n    BoardPiece[42] board;\n\n    BoardPiece whoseTurn;\n\n    bool restricted;\n    bool isStarted;\n    bool gameOver;\n  }\n\n  event logGameCreated(uint gameId, bool restricted);\n  event logGameStart(uint gameId);\n  event logMoveMade(uint gameId, BoardPiece who, uint8 position);\n  event logGameEnd(uint gameId, address winner);\n\n  uint public moveTimeout;\n  uint nextID;\n\n  mapping (uint => GameState) games;\n\n  function ConnectFour(uint timeout) public{\n    moveTimeout = timeout;\n  }\n\n  modifier onlyGameExists(uint gameId){\n    require(games[gameId].playerOneRed != 0);\n    _;\n  }\n\n  modifier onlyWhileNotStarted(uint gameId){\n    require(!games[gameId].isStarted);\n    _;\n  }\n\n  modifier onlyWhilePlaying(uint gameId){\n    require(games[gameId].isStarted && !games[gameId].gameOver);\n    _;\n  }\n\n  modifier onlyPlayers(uint gameId){\n    require(msg.sender == games[gameId].playerOneRed\n      || msg.sender == games[gameId].playerTwoBlack);\n      _;\n  }\n\n  modifier onlyActivePlayer(uint gameId){\n    require(msg.sender == getActivePlayer(gameId));\n\n    _;\n  }\n\n  modifier onlyInactivePlayer(uint gameId){\n    require(msg.sender == getInactivePlayer(gameId));\n\n    _;\n  }\n\n  modifier onlyAfterTimeout(uint gameId){\n    require(now > games[gameId].lastTimePlayed + moveTimeout);\n    _;\n  }\n\n  function getBid(uint gameId) constant public returns(uint) {\n    return games[gameId].bid;\n  }\n\n  function getLastTimePlayed(uint gameId) constant public returns(uint){\n    return games[gameId].lastTimePlayed;\n  }\n\n  function getPlayerOne(uint gameId) constant public returns(address){\n    return games[gameId].playerOneRed;\n  }\n\n  function getPlayerTwo(uint gameId) constant public returns(address){\n    return games[gameId].playerTwoBlack;\n  }\n\n  function getBoard(uint gameId) constant public returns(BoardPiece[42]){\n    return games[gameId].board;\n  }\n\n  function getWhoseTurn(uint gameId) constant public returns(BoardPiece){\n    return games[gameId].whoseTurn;\n  }\n\n  function getRestricted(uint gameId) constant public returns(bool){\n    return games[gameId].restricted;\n  }\n\n  function getIsStarted(uint gameId) constant public returns(bool){\n    return games[gameId].isStarted;\n  }\n\n  function getGameOver(uint gameId) constant public returns(bool){\n    return games[gameId].gameOver;\n  }\n\n  function getActivePlayer(uint gameId) constant internal returns(address){\n    BoardPiece player = games[gameId].whoseTurn;\n\n    if(player == BoardPiece.RED){\n      return games[gameId].playerOneRed;\n    } else if(player == BoardPiece.BLACK){\n      return games[gameId].playerTwoBlack;\n    } else{\n      revert();\n    }\n  }\n\n  function getInactivePlayer(uint gameId) constant internal returns(address){\n    BoardPiece player = games[gameId].whoseTurn;\n\n    if(player == BoardPiece.RED){\n      return games[gameId].playerTwoBlack;\n    } else if(player == BoardPiece.BLACK){\n      return games[gameId].playerOneRed;\n    } else{\n      revert();\n    }\n  }\n\n  function createUniqueId() private returns(uint) {\n    return nextID++;\n  }\n\n\n  function _createNewGame(uint gameId) private{\n    games[gameId].bid = msg.value;\n    games[gameId].playerOneRed = msg.sender;\n    logGameCreated(gameId, false);\n  }\n\n  function createNewGame() external payable {\n    uint gameId = createUniqueId();\n    _createNewGame(gameId);\n  }\n\n  function createNewRestrictedGame(address playerTwo) external payable {\n    require(playerTwo != msg.sender);\n    uint gameId = createUniqueId();\n    games[gameId].restricted = true;\n    games[gameId].playerTwoBlack = playerTwo;\n    _createNewGame(gameId);\n  }\n\n  function joinGame(uint gameId) external payable\n  onlyGameExists(gameId)\n  onlyWhileNotStarted(gameId) {\n    require(getPlayerOne(gameId) != msg.sender);\n    require(msg.value == getBid(gameId));\n\n    if(getRestricted(gameId)){\n      require(games[gameId].playerTwoBlack == msg.sender);\n    } else {\n      games[gameId].playerTwoBlack = msg.sender;\n    }\n\n    games[gameId].lastTimePlayed = now;\n    games[gameId].isStarted = true;\n    games[gameId].whoseTurn = BoardPiece.RED;\n    logGameStart(gameId);\n  }\n\n  function gameEnd(uint gameId, address winner) private {\n    games[gameId].gameOver = true;\n    uint256 payout = games[gameId].bid * 2;\n\n    asyncSend(winner, payout);\n\n    logGameEnd(gameId, winner);\n  }\n\n  function forfeit(uint gameId) external\n  onlyWhilePlaying(gameId)\n  onlyPlayers(gameId){\n    if(msg.sender == games[gameId].playerOneRed){\n      gameEnd(gameId, games[gameId].playerTwoBlack);\n    } else if(msg.sender == games[gameId].playerTwoBlack){\n      gameEnd(gameId, games[gameId].playerOneRed);\n    } else{\n      //This should never happen\n      revert();\n    }\n  }\n\n  function claimTimeoutVictory(uint gameId) external\n  onlyAfterTimeout(gameId)\n  onlyInactivePlayer(gameId)\n  onlyWhilePlaying(gameId)\n  {\n    gameEnd(gameId, getInactivePlayer(gameId));\n  }\n\n}\n",
  "sourcePath": "/home/dmelcer9/ethdev/c4/contracts/ConnectFour.sol",
  "compiler": {
    "name": "solc",
    "version": "0.4.18+commit.9cf6e910.Emscripten.clang"
  },
  "schemaVersion": "1.0.1",
  "updatedAt": "2017-12-18T20:06:19.530Z"
}