{
  "contractName": "ConnectFour",
  "abi": [
    {
      "constant": true,
      "inputs": [],
      "name": "totalPayments",
      "outputs": [
        {
          "name": "",
          "type": "uint256"
        }
      ],
      "payable": false,
      "stateMutability": "view",
      "type": "function"
    },
    {
      "constant": true,
      "inputs": [
        {
          "name": "gameId",
          "type": "uint256"
        }
      ],
      "name": "getLastTimePlayed",
      "outputs": [
        {
          "name": "",
          "type": "uint256"
        }
      ],
      "payable": false,
      "stateMutability": "view",
      "type": "function"
    },
    {
      "constant": false,
      "inputs": [
        {
          "name": "gameId",
          "type": "uint256"
        },
        {
          "name": "moveToMake",
          "type": "uint8"
        },
        {
          "name": "claim",
          "type": "uint8[4]"
        }
      ],
      "name": "makeMoveAndClaimVictory",
      "outputs": [],
      "payable": false,
      "stateMutability": "nonpayable",
      "type": "function"
    },
    {
      "constant": true,
      "inputs": [
        {
          "name": "gameId",
          "type": "uint256"
        }
      ],
      "name": "getBid",
      "outputs": [
        {
          "name": "",
          "type": "uint256"
        }
      ],
      "payable": false,
      "stateMutability": "view",
      "type": "function"
    },
    {
      "constant": true,
      "inputs": [
        {
          "name": "gameId",
          "type": "uint256"
        }
      ],
      "name": "getPlayerTwo",
      "outputs": [
        {
          "name": "",
          "type": "address"
        }
      ],
      "payable": false,
      "stateMutability": "view",
      "type": "function"
    },
    {
      "constant": false,
      "inputs": [
        {
          "name": "gameId",
          "type": "uint256"
        }
      ],
      "name": "forfeit",
      "outputs": [],
      "payable": false,
      "stateMutability": "nonpayable",
      "type": "function"
    },
    {
      "constant": true,
      "inputs": [
        {
          "name": "gameId",
          "type": "uint256"
        }
      ],
      "name": "getBoard",
      "outputs": [
        {
          "name": "",
          "type": "uint8[42]"
        }
      ],
      "payable": false,
      "stateMutability": "view",
      "type": "function"
    },
    {
      "constant": true,
      "inputs": [
        {
          "name": "gameId",
          "type": "uint256"
        }
      ],
      "name": "getGameOver",
      "outputs": [
        {
          "name": "",
          "type": "bool"
        }
      ],
      "payable": false,
      "stateMutability": "view",
      "type": "function"
    },
    {
      "constant": false,
      "inputs": [],
      "name": "withdrawPayments",
      "outputs": [],
      "payable": false,
      "stateMutability": "nonpayable",
      "type": "function"
    },
    {
      "constant": true,
      "inputs": [
        {
          "name": "gameId",
          "type": "uint256"
        }
      ],
      "name": "getIsStarted",
      "outputs": [
        {
          "name": "",
          "type": "bool"
        }
      ],
      "payable": false,
      "stateMutability": "view",
      "type": "function"
    },
    {
      "constant": false,
      "inputs": [
        {
          "name": "gameId",
          "type": "uint256"
        },
        {
          "name": "position",
          "type": "uint8"
        }
      ],
      "name": "makeMove",
      "outputs": [],
      "payable": false,
      "stateMutability": "nonpayable",
      "type": "function"
    },
    {
      "constant": false,
      "inputs": [
        {
          "name": "playerTwo",
          "type": "address"
        }
      ],
      "name": "createNewRestrictedGame",
      "outputs": [],
      "payable": true,
      "stateMutability": "payable",
      "type": "function"
    },
    {
      "constant": true,
      "inputs": [
        {
          "name": "gameId",
          "type": "uint256"
        }
      ],
      "name": "getRestricted",
      "outputs": [
        {
          "name": "",
          "type": "bool"
        }
      ],
      "payable": false,
      "stateMutability": "view",
      "type": "function"
    },
    {
      "constant": true,
      "inputs": [
        {
          "name": "gameId",
          "type": "uint256"
        }
      ],
      "name": "getWhoseTurn",
      "outputs": [
        {
          "name": "",
          "type": "uint8"
        }
      ],
      "payable": false,
      "stateMutability": "view",
      "type": "function"
    },
    {
      "constant": true,
      "inputs": [
        {
          "name": "gameId",
          "type": "uint256"
        }
      ],
      "name": "getPlayerOne",
      "outputs": [
        {
          "name": "",
          "type": "address"
        }
      ],
      "payable": false,
      "stateMutability": "view",
      "type": "function"
    },
    {
      "constant": false,
      "inputs": [
        {
          "name": "gameId",
          "type": "uint256"
        }
      ],
      "name": "cancelCreatedGame",
      "outputs": [],
      "payable": false,
      "stateMutability": "nonpayable",
      "type": "function"
    },
    {
      "constant": true,
      "inputs": [
        {
          "name": "gameId",
          "type": "uint256"
        },
        {
          "name": "who",
          "type": "uint8"
        },
        {
          "name": "moves",
          "type": "uint8[4]"
        }
      ],
      "name": "checkHasWon",
      "outputs": [
        {
          "name": "",
          "type": "bool"
        }
      ],
      "payable": false,
      "stateMutability": "view",
      "type": "function"
    },
    {
      "constant": true,
      "inputs": [
        {
          "name": "",
          "type": "address"
        }
      ],
      "name": "payments",
      "outputs": [
        {
          "name": "",
          "type": "uint256"
        }
      ],
      "payable": false,
      "stateMutability": "view",
      "type": "function"
    },
    {
      "constant": false,
      "inputs": [],
      "name": "createNewGame",
      "outputs": [],
      "payable": true,
      "stateMutability": "payable",
      "type": "function"
    },
    {
      "constant": false,
      "inputs": [
        {
          "name": "gameId",
          "type": "uint256"
        }
      ],
      "name": "joinGame",
      "outputs": [],
      "payable": true,
      "stateMutability": "payable",
      "type": "function"
    },
    {
      "constant": false,
      "inputs": [
        {
          "name": "gameId",
          "type": "uint256"
        }
      ],
      "name": "claimTimeoutVictory",
      "outputs": [],
      "payable": false,
      "stateMutability": "nonpayable",
      "type": "function"
    },
    {
      "constant": true,
      "inputs": [],
      "name": "moveTimeout",
      "outputs": [
        {
          "name": "",
          "type": "uint256"
        }
      ],
      "payable": false,
      "stateMutability": "view",
      "type": "function"
    },
    {
      "inputs": [
        {
          "name": "timeout",
          "type": "uint256"
        }
      ],
      "payable": false,
      "stateMutability": "nonpayable",
      "type": "constructor"
    },
    {
      "payable": false,
      "stateMutability": "nonpayable",
      "type": "fallback"
    },
    {
      "anonymous": false,
      "inputs": [
        {
          "indexed": false,
          "name": "gameId",
          "type": "uint256"
        },
        {
          "indexed": false,
          "name": "restricted",
          "type": "bool"
        }
      ],
      "name": "logGameCreated",
      "type": "event"
    },
    {
      "anonymous": false,
      "inputs": [
        {
          "indexed": false,
          "name": "gameId",
          "type": "uint256"
        }
      ],
      "name": "logGameStart",
      "type": "event"
    },
    {
      "anonymous": false,
      "inputs": [
        {
          "indexed": false,
          "name": "gameId",
          "type": "uint256"
        },
        {
          "indexed": false,
          "name": "who",
          "type": "uint8"
        },
        {
          "indexed": false,
          "name": "position",
          "type": "uint8"
        }
      ],
      "name": "logMoveMade",
      "type": "event"
    },
    {
      "anonymous": false,
      "inputs": [
        {
          "indexed": false,
          "name": "gameId",
          "type": "uint256"
        },
        {
          "indexed": false,
          "name": "winner",
          "type": "address"
        }
      ],
      "name": "logGameEnd",
      "type": "event"
    },
    {
      "anonymous": false,
      "inputs": [
        {
          "indexed": false,
          "name": "gameId",
          "type": "uint256"
        }
      ],
      "name": "logGameCancel",
      "type": "event"
    }
  ],
  "bytecode": "0x6060604052341561000f57600080fd5b604051602080611e3b833981016040528080519060200190919050508060028190555050611df9806100426000396000f300606060405260043610610127576000357c0100000000000000000000000000000000000000000000000000000000900463ffffffff1680625b4487146101375780630628b6ba14610160578063224bbbac146101975780633c889e6f146101cd5780633d412d0f146102045780633ed546ab1461026757806345e09e541461028a5780635e0d8a26146102e95780636103d70b146103245780637e24c66b146103395780637fd6f7c41461037457806385870dcf146103a35780639e693e5d146103d1578063a100724c1461040c578063a960f05b14610451578063b153ac55146104b4578063bfd2b628146104d7578063e2982c211461054a578063eb87eb5e14610597578063efaa55a0146105a1578063eff53a69146105b9578063fdb894ac146105dc575b341561013257600080fd5b600080fd5b341561014257600080fd5b61014a610605565b6040518082815260200191505060405180910390f35b341561016b57600080fd5b610181600480803590602001909190505061060b565b6040518082815260200191505060405180910390f35b34156101a257600080fd5b6101cb600480803590602001909190803560ff169060200190919080608001909190505061062b565b005b34156101d857600080fd5b6101ee6004808035906020019091905050610757565b6040518082815260200191505060405180910390f35b341561020f57600080fd5b6102256004808035906020019091905050610777565b604051808273ffffffffffffffffffffffffffffffffffffffff1673ffffffffffffffffffffffffffffffffffffffff16815260200191505060405180910390f35b341561027257600080fd5b61028860048080359060200190919050506107b7565b005b341561029557600080fd5b6102ab6004808035906020019091905050610a5a565b6040518082602a60200280838360005b838110156102d65780820151818401526020810190506102bb565b5050505090500191505060405180910390f35b34156102f457600080fd5b61030a6004808035906020019091905050610ae9565b604051808215151515815260200191505060405180910390f35b341561032f57600080fd5b610337610b16565b005b341561034457600080fd5b61035a6004808035906020019091905050610c33565b604051808215151515815260200191505060405180910390f35b341561037f57600080fd5b6103a1600480803590602001909190803560ff16906020019091905050610c60565b005b6103cf600480803573ffffffffffffffffffffffffffffffffffffffff16906020019091905050610f63565b005b34156103dc57600080fd5b6103f2600480803590602001909190505061103b565b604051808215151515815260200191505060405180910390f35b341561041757600080fd5b61042d6004808035906020019091905050611068565b6040518082600281111561043d57fe5b60ff16815260200191505060405180910390f35b341561045c57600080fd5b6104726004808035906020019091905050611095565b604051808273ffffffffffffffffffffffffffffffffffffffff1673ffffffffffffffffffffffffffffffffffffffff16815260200191505060405180910390f35b34156104bf57600080fd5b6104d560048080359060200190919050506110d5565b005b34156104e257600080fd5b610530600480803590602001909190803560ff1690602001909190806080019060048060200260405190810160405280929190826004602002808284378201915050505050919050506112bc565b604051808215151515815260200191505060405180910390f35b341561055557600080fd5b610581600480803573ffffffffffffffffffffffffffffffffffffffff1690602001909190505061157e565b6040518082815260200191505060405180910390f35b61059f611596565b005b6105b760048080359060200190919050506115ae565b005b34156105c457600080fd5b6105da6004808035906020019091905050611859565b005b34156105e757600080fd5b6105ef61193a565b6040518082815260200191505060405180910390f35b60015481565b600060046000838152602001908152602001600020600101549050919050565b6000808461063881611940565b73ffffffffffffffffffffffffffffffffffffffff163373ffffffffffffffffffffffffffffffffffffffff1614151561067157600080fd5b856004600082815260200190815260200160002060060160029054906101000a900460ff1680156106c357506004600082815260200190815260200160002060060160039054906101000a900460ff16155b15156106ce57600080fd5b6004600088815260200190815260200160002060060160009054906101000a900460ff1693506106fd87611940565b92506107098787610c60565b610739878587600480602002604051908101604052809291908260046020028082843782019150505050506112bc565b151561074457600080fd5b61074e8784611a2d565b50505050505050565b600060046000838152602001908152602001600020600001549050919050565b60006004600083815260200190815260200160002060030160009054906101000a900473ffffffffffffffffffffffffffffffffffffffff169050919050565b806004600082815260200190815260200160002060060160029054906101000a900460ff16801561080957506004600082815260200190815260200160002060060160039054906101000a900460ff16155b151561081457600080fd5b816004600082815260200190815260200160002060020160009054906101000a900473ffffffffffffffffffffffffffffffffffffffff1673ffffffffffffffffffffffffffffffffffffffff163373ffffffffffffffffffffffffffffffffffffffff1614806108e657506004600082815260200190815260200160002060030160009054906101000a900473ffffffffffffffffffffffffffffffffffffffff1673ffffffffffffffffffffffffffffffffffffffff163373ffffffffffffffffffffffffffffffffffffffff16145b15156108f157600080fd5b6004600084815260200190815260200160002060020160009054906101000a900473ffffffffffffffffffffffffffffffffffffffff1673ffffffffffffffffffffffffffffffffffffffff163373ffffffffffffffffffffffffffffffffffffffff1614156109a05761099b836004600086815260200190815260200160002060030160009054906101000a900473ffffffffffffffffffffffffffffffffffffffff16611a2d565b610a55565b6004600084815260200190815260200160002060030160009054906101000a900473ffffffffffffffffffffffffffffffffffffffff1673ffffffffffffffffffffffffffffffffffffffff163373ffffffffffffffffffffffffffffffffffffffff161415610a4f57610a4a836004600086815260200190815260200160002060020160009054906101000a900473ffffffffffffffffffffffffffffffffffffffff16611a2d565b610a54565b600080fd5b5b505050565b610a62611d99565b60046000838152602001908152602001600020600401602a806020026040519081016040528092919082602a8015610add576020028201916000905b82829054906101000a900460ff166002811115610ab757fe5b81526020019060010190602082600001049283019260010382029150808411610a9e5790505b50505050509050919050565b60006004600083815260200190815260200160002060060160039054906101000a900460ff169050919050565b6000803391506000808373ffffffffffffffffffffffffffffffffffffffff1673ffffffffffffffffffffffffffffffffffffffff16815260200190815260200160002054905060008114151515610b6d57600080fd5b803073ffffffffffffffffffffffffffffffffffffffff163110151515610b9357600080fd5b610ba881600154611af490919063ffffffff16565b60018190555060008060008473ffffffffffffffffffffffffffffffffffffffff1673ffffffffffffffffffffffffffffffffffffffff168152602001908152602001600020819055508173ffffffffffffffffffffffffffffffffffffffff166108fc829081150290604051600060405180830381858888f193505050501515610c2f57fe5b5050565b60006004600083815260200190815260200160002060060160029054906101000a900460ff169050919050565b600082610c6c81611940565b73ffffffffffffffffffffffffffffffffffffffff163373ffffffffffffffffffffffffffffffffffffffff16141515610ca557600080fd5b836004600082815260200190815260200160002060060160029054906101000a900460ff168015610cf757506004600082815260200190815260200160002060060160039054906101000a900460ff16155b1515610d0257600080fd5b6004600086815260200190815260200160002060060160009054906101000a900460ff16925060008460ff1610158015610d40575060298460ff1611155b1515610d4b57600080fd5b60006002811115610d5857fe5b600460008781526020019081526020016000206004018560ff16602a81101515610d7e57fe5b602091828204019190069054906101000a900460ff166002811115610d9f57fe5b141515610dab57600080fd5b60078460ff16101515610e1d5760006002811115610dc557fe5b600460008781526020019081526020016000206004016007860360ff16602a81101515610dee57fe5b602091828204019190069054906101000a900460ff166002811115610e0f57fe5b14151515610e1c57600080fd5b5b82600460008781526020019081526020016000206004018560ff16602a81101515610e4457fe5b602091828204019190066101000a81548160ff02191690836002811115610e6757fe5b021790555060016002811115610e7957fe5b836002811115610e8557fe5b1415610ec85760026004600087815260200190815260200160002060060160006101000a81548160ff02191690836002811115610ebe57fe5b0217905550610f01565b60016004600087815260200190815260200160002060060160006101000a81548160ff02191690836002811115610efb57fe5b02179055505b7f524366571c14a79b0a13271deb2f90e50a95e86fe8f069fbedcf8a9ad5441ea085848660405180848152602001836002811115610f3b57fe5b60ff1681526020018260ff1660ff168152602001935050505060405180910390a15050505050565b60003373ffffffffffffffffffffffffffffffffffffffff168273ffffffffffffffffffffffffffffffffffffffff1614151515610fa057600080fd5b610fa8611b0d565b905060016004600083815260200190815260200160002060060160016101000a81548160ff021916908315150217905550816004600083815260200190815260200160002060030160006101000a81548173ffffffffffffffffffffffffffffffffffffffff021916908373ffffffffffffffffffffffffffffffffffffffff16021790555061103781611b25565b5050565b60006004600083815260200190815260200160002060060160019054906101000a900460ff169050919050565b60006004600083815260200190815260200160002060060160009054906101000a900460ff169050919050565b60006004600083815260200190815260200160002060020160009054906101000a900473ffffffffffffffffffffffffffffffffffffffff169050919050565b8060006004600083815260200190815260200160002060020160009054906101000a900473ffffffffffffffffffffffffffffffffffffffff1673ffffffffffffffffffffffffffffffffffffffff161415151561113257600080fd5b816004600082815260200190815260200160002060060160029054906101000a900460ff1615801561118557506004600082815260200190815260200160002060060160039054906101000a900460ff16155b151561119057600080fd5b826004600082815260200190815260200160002060020160009054906101000a900473ffffffffffffffffffffffffffffffffffffffff1673ffffffffffffffffffffffffffffffffffffffff163373ffffffffffffffffffffffffffffffffffffffff1614151561120157600080fd5b60016004600086815260200190815260200160002060060160026101000a81548160ff02191690831515021790555060016004600086815260200190815260200160002060060160036101000a81548160ff02191690831515021790555061127f336004600087815260200190815260200160002060000154611bdc565b7f205fbe38a5a5dba05069ab167682b12bbeabc051d0d6ee955ec20568107472ca846040518082815260200191505060405180910390a150505050565b60008060008091505b60048260ff16101561139f576000848360ff166004811015156112e457fe5b602002015160ff161015801561131357506029848360ff1660048110151561130857fe5b602002015160ff1611155b151561131e57600080fd5b84600281111561132a57fe5b60046000888152602001908152602001600020600401858460ff1660048110151561135157fe5b602002015160ff16602a8110151561136557fe5b602091828204019190069054906101000a900460ff16600281111561138657fe5b14151561139257600080fd5b81806001019250506112c5565b8360016004811015156113ae57fe5b602002015160ff168460006004811015156113c557fe5b602002015160ff161015156113d957600080fd5b8360006004811015156113e857fe5b60200201518460016004811015156113fc57fe5b60200201510390508060ff1684600160048110151561141757fe5b602002015185600260048110151561142b57fe5b60200201510360ff1614801561146e57508060ff1684600260048110151561144f57fe5b602002015185600360048110151561146357fe5b60200201510360ff16145b151561147957600080fd5b60018160ff16148061148e575060088160ff16145b156114f05760078460036004811015156114a457fe5b602002015160ff168115156114b557fe5b0660ff1660078560006004811015156114ca57fe5b602002015160ff168115156114db57fe5b0660ff161015156114eb57600080fd5b611571565b60068160ff16141561155957600784600060048110151561150d57fe5b602002015160ff1681151561151e57fe5b0660ff16600785600360048110151561153357fe5b602002015160ff1681151561154457fe5b0660ff1610151561155457600080fd5b611570565b60078160ff16141561156a5761156f565b600080fd5b5b5b6001925050509392505050565b60006020528060005260406000206000915090505481565b60006115a0611b0d565b90506115ab81611b25565b50565b8060006004600083815260200190815260200160002060020160009054906101000a900473ffffffffffffffffffffffffffffffffffffffff1673ffffffffffffffffffffffffffffffffffffffff161415151561160b57600080fd5b816004600082815260200190815260200160002060060160029054906101000a900460ff1615801561165e57506004600082815260200190815260200160002060060160039054906101000a900460ff16155b151561166957600080fd5b3373ffffffffffffffffffffffffffffffffffffffff1661168984611095565b73ffffffffffffffffffffffffffffffffffffffff16141515156116ac57600080fd5b6116b583610757565b341415156116c257600080fd5b6116cb8361103b565b15611745573373ffffffffffffffffffffffffffffffffffffffff166004600085815260200190815260200160002060030160009054906101000a900473ffffffffffffffffffffffffffffffffffffffff1673ffffffffffffffffffffffffffffffffffffffff1614151561174057600080fd5b61179b565b336004600085815260200190815260200160002060030160006101000a81548173ffffffffffffffffffffffffffffffffffffffff021916908373ffffffffffffffffffffffffffffffffffffffff1602179055505b42600460008581526020019081526020016000206001018190555060016004600085815260200190815260200160002060060160026101000a81548160ff02191690831515021790555060016004600085815260200190815260200160002060060160006101000a81548160ff0219169083600281111561181857fe5b02179055507fb67b12ea4e48bdaf33fea4567f20c1b9d1e570f99cfbe8b3c359d2e1ac352dca836040518082815260200191505060405180910390a1505050565b806002546004600083815260200190815260200160002060010154014211151561188257600080fd5b8161188c81611c8e565b73ffffffffffffffffffffffffffffffffffffffff163373ffffffffffffffffffffffffffffffffffffffff161415156118c557600080fd5b826004600082815260200190815260200160002060060160029054906101000a900460ff16801561191757506004600082815260200190815260200160002060060160039054906101000a900460ff16155b151561192257600080fd5b6119348461192f86611c8e565b611a2d565b50505050565b60025481565b6000806004600084815260200190815260200160002060060160009054906101000a900460ff1690506001600281111561197657fe5b81600281111561198257fe5b14156119c6576004600084815260200190815260200160002060020160009054906101000a900473ffffffffffffffffffffffffffffffffffffffff169150611a27565b6002808111156119d257fe5b8160028111156119de57fe5b1415611a22576004600084815260200190815260200160002060030160009054906101000a900473ffffffffffffffffffffffffffffffffffffffff169150611a27565b600080fd5b50919050565b600060016004600085815260200190815260200160002060060160036101000a81548160ff02191690831515021790555060026004600085815260200190815260200160002060000154029050611a848282611bdc565b7f2799f7db9b662090ba734216b411a1786edb43fd4d384f1eb7f332e824347bf98383604051808381526020018273ffffffffffffffffffffffffffffffffffffffff1673ffffffffffffffffffffffffffffffffffffffff1681526020019250505060405180910390a1505050565b6000828211151515611b0257fe5b818303905092915050565b60006003600081548092919060010191905055905090565b346004600083815260200190815260200160002060000181905550336004600083815260200190815260200160002060020160006101000a81548173ffffffffffffffffffffffffffffffffffffffff021916908373ffffffffffffffffffffffffffffffffffffffff1602179055507feaf0b95c5849c1d74de24977c84c7991623dd2d4645913aa4dc5866d53a0b14581600060405180838152602001821515151581526020019250505060405180910390a150565b611c2d816000808573ffffffffffffffffffffffffffffffffffffffff1673ffffffffffffffffffffffffffffffffffffffff16815260200190815260200160002054611d7b90919063ffffffff16565b6000808473ffffffffffffffffffffffffffffffffffffffff1673ffffffffffffffffffffffffffffffffffffffff16815260200190815260200160002081905550611c8481600154611d7b90919063ffffffff16565b6001819055505050565b6000806004600084815260200190815260200160002060060160009054906101000a900460ff16905060016002811115611cc457fe5b816002811115611cd057fe5b1415611d14576004600084815260200190815260200160002060030160009054906101000a900473ffffffffffffffffffffffffffffffffffffffff169150611d75565b600280811115611d2057fe5b816002811115611d2c57fe5b1415611d70576004600084815260200190815260200160002060020160009054906101000a900473ffffffffffffffffffffffffffffffffffffffff169150611d75565b600080fd5b50919050565b6000808284019050838110151515611d8f57fe5b8091505092915050565b61054060405190810160405280602a905b60006002811115611db757fe5b815260200190600190039081611daa57905050905600a165627a7a72305820a4ea03c69711588fb81d0a9eda681b83e7a7b99fdec6d2d3be917f64d086cc160029",
  "source": "pragma solidity ^0.4.18;\n\nimport \"../node_modules/zeppelin-solidity/contracts/payment/PullPayment.sol\";\n//function asyncSend(address dest, uint256 amount) internal;\n//function withdrawPayments() public;\n\ncontract ConnectFour is PullPayment {\n\n  enum BoardPiece {NONE, RED, BLACK}\n\n  //Encapsulates total game lead.\n  struct GameState {\n    uint bid; //How much each player bids\n    uint lastTimePlayed; //When was the last move made?\n\n    address playerOneRed;\n    address playerTwoBlack;\n\n    //Board is 7 columns by 6 rows\n    //0 is the bottom-left corner of the board\n    //1 is the second from the left on the bottom\n    //6 is the bottom-right corner\n    //7 is the left on the second-to-bottom row\n    //41 is the top-right\n    BoardPiece[42] board;\n\n    BoardPiece whoseTurn;\n\n    bool restricted;\n    bool isStarted;\n    bool gameOver;\n  }\n\n  event logGameCreated(uint gameId, bool restricted);\n  event logGameStart(uint gameId);\n  event logMoveMade(uint gameId, BoardPiece who, uint8 position);\n  event logGameEnd(uint gameId, address winner);\n  event logGameCancel(uint gameId);\n\n  //How long someone has to move before the other player can claim victory\n  uint public moveTimeout;\n\n  //Counter so each game has a unique ID\n  uint nextID;\n\n  //The state of all the games\n  mapping (uint => GameState) games;\n\n  modifier onlyGameExists(uint gameId) {\n    require(games[gameId].playerOneRed != 0);\n    _;\n  }\n\n  modifier onlyWhileNotStarted(uint gameId) {\n    require(!games[gameId].isStarted && !games[gameId].gameOver);\n    _;\n  }\n\n  modifier onlyWhilePlaying(uint gameId) {\n    require(games[gameId].isStarted && !games[gameId].gameOver);\n    _;\n  }\n\n  modifier onlyPlayers(uint gameId) {\n    require(msg.sender == games[gameId].playerOneRed\n      || msg.sender == games[gameId].playerTwoBlack);\n      _;\n  }\n\n  //Only the player whose turn it is\n  modifier onlyActivePlayer(uint gameId) {\n    require(msg.sender == getActivePlayer(gameId));\n    _;\n  }\n\n  //Only the player whose turn it isn't\n  modifier onlyInactivePlayer(uint gameId) {\n    require(msg.sender == getInactivePlayer(gameId));\n    _;\n  }\n\n  modifier onlyGameCreator(uint gameId) {\n    require(msg.sender == games[gameId].playerOneRed);\n    _;\n  }\n\n  modifier onlyAfterTimeout(uint gameId) {\n    require(now > games[gameId].lastTimePlayed + moveTimeout);\n    _;\n  }\n\n  function ConnectFour(uint timeout) public {\n    moveTimeout = timeout;\n  }\n\n  function() public {\n    revert();\n  }\n\n  //Creates a game with a unique ID. Anyone can join this game.\n  function createNewGame() external payable {\n    uint gameId = createUniqueId();\n    createNewGameEntry(gameId);\n  }\n\n  //Creates a game where only a specified player can join.\n  function createNewRestrictedGame(address playerTwo) external payable {\n    require(playerTwo != msg.sender);\n    uint gameId = createUniqueId();\n    games[gameId].restricted = true;\n    games[gameId].playerTwoBlack = playerTwo;\n    createNewGameEntry(gameId);\n  }\n\n  //Join a game that another person has created.\n  function joinGame(uint gameId) external payable\n    onlyGameExists(gameId)\n    onlyWhileNotStarted(gameId)\n  {\n    require(getPlayerOne(gameId) != msg.sender);\n    require(msg.value == getBid(gameId));\n\n    if (getRestricted(gameId)) {\n      require(games[gameId].playerTwoBlack == msg.sender);\n    } else {\n      games[gameId].playerTwoBlack = msg.sender;\n    }\n\n    games[gameId].lastTimePlayed = now;\n    games[gameId].isStarted = true;\n    games[gameId].whoseTurn = BoardPiece.RED;\n    logGameStart(gameId);\n  }\n\n  //If nobody has joined your game, you can cancel and get money back\n  function cancelCreatedGame(uint gameId)\n    external\n    onlyGameExists(gameId)\n    onlyWhileNotStarted(gameId)\n    onlyGameCreator(gameId)\n  {\n    games[gameId].isStarted = true;\n    games[gameId].gameOver = true;\n\n    asyncSend(msg.sender, games[gameId].bid);\n\n    logGameCancel(gameId);\n  }\n\n  function forfeit(uint gameId)\n    external\n    onlyWhilePlaying(gameId)\n    onlyPlayers(gameId)\n  {\n    if (msg.sender == games[gameId].playerOneRed) {\n      gameEnd(gameId, games[gameId].playerTwoBlack);\n    } else if (msg.sender == games[gameId].playerTwoBlack) {\n      gameEnd(gameId, games[gameId].playerOneRed);\n    } else {\n      //This should never happen\n      revert();\n    }\n  }\n\n  function claimTimeoutVictory(uint gameId)\n    external\n    onlyAfterTimeout(gameId)\n    onlyInactivePlayer(gameId)\n    onlyWhilePlaying(gameId)\n  {\n    gameEnd(gameId, getInactivePlayer(gameId));\n  }\n\n  //The pieces in toClaim must be sorted positions, least to greatest\n  function makeMoveAndClaimVictory(uint gameId, uint8 moveToMake, uint8[4] claim)\n    external\n    onlyActivePlayer(gameId)\n    onlyWhilePlaying(gameId)\n  {\n    BoardPiece player = games[gameId].whoseTurn;\n    address playerAddress = getActivePlayer(gameId);\n\n    makeMove(gameId, moveToMake);\n\n    require(checkHasWon(gameId, player, claim));\n\n    gameEnd(gameId,playerAddress);\n  }\n\n  //If the move is valid, make a move on the board\n  function makeMove(uint gameId, uint8 position)\n    public\n    onlyActivePlayer(gameId)\n    onlyWhilePlaying(gameId)\n  {\n    BoardPiece player = games[gameId].whoseTurn;\n\n    require(position >= 0 && position <= 41);\n    require(games[gameId].board[position] == BoardPiece.NONE);\n\n    if (position >= 7){\n      require(games[gameId].board[position - 7] != BoardPiece.NONE);\n    }\n\n    games[gameId].board[position] = player;\n\n    if (player == BoardPiece.RED) {\n      games[gameId].whoseTurn = BoardPiece.BLACK;\n    } else {\n      games[gameId].whoseTurn = BoardPiece.RED;\n    }\n\n    logMoveMade(gameId, player, position);\n  }\n\n  //Is a set of four pieces a valid victory\n  function checkHasWon(uint gameId, BoardPiece who, uint8[4] moves) constant public returns(bool){\n    for (uint8 i = 0; i<4; i++){\n      require(moves[i] >= 0 && moves[i] <= 41);\n      require(games[gameId].board[moves[i]] == who);\n    }\n\n    //First 2 pieces must be in increasing order\n    require(moves[0] < moves[1]);\n    uint8 diff = moves[1] - moves[0];\n\n    //All other pieces must line up the same as the first 2 (and also be increasing)\n    require(moves[2] - moves[1] == diff &&\n            moves[3] - moves[2] == diff);\n\n    //Make sure pieces are in a valid arrangement\n    //And prevent wrap-around\n    if (diff == 1 || diff == 8){\n      //The last piace should be further to the right than the first one\n      require(moves[0] % 7 < moves[3] % 7);\n    } else if (diff == 6){\n      //The last piece should be further to the left than the first one\n      require(moves[3] % 7 < moves[0] % 7);\n    } else if (diff == 7){\n      //Wrap-around isn't a problem with vertical pieces\n    } else{\n      revert();\n    }\n\n    return true;\n\n  }\n\n  //Accessor functions per game\n  function getBid(uint gameId) constant public returns(uint) {\n    return games[gameId].bid;\n  }\n\n  function getLastTimePlayed(uint gameId) constant public returns(uint){\n    return games[gameId].lastTimePlayed;\n  }\n\n  function getPlayerOne(uint gameId) constant public returns(address){\n    return games[gameId].playerOneRed;\n  }\n\n  function getPlayerTwo(uint gameId) constant public returns(address){\n    return games[gameId].playerTwoBlack;\n  }\n\n  function getBoard(uint gameId) constant public returns(BoardPiece[42]){\n    return games[gameId].board;\n  }\n\n  function getWhoseTurn(uint gameId) constant public returns(BoardPiece){\n    return games[gameId].whoseTurn;\n  }\n\n  function getRestricted(uint gameId) constant public returns(bool){\n    return games[gameId].restricted;\n  }\n\n  function getIsStarted(uint gameId) constant public returns(bool){\n    return games[gameId].isStarted;\n  }\n\n  function getGameOver(uint gameId) constant public returns(bool){\n    return games[gameId].gameOver;\n  }\n\n  //Player that is currently going\n  function getActivePlayer(uint gameId) constant internal returns(address){\n    BoardPiece player = games[gameId].whoseTurn;\n\n    if (player == BoardPiece.RED) {\n      return games[gameId].playerOneRed;\n    } else if (player == BoardPiece.BLACK) {\n      return games[gameId].playerTwoBlack;\n    } else {\n      revert();\n    }\n  }\n\n  //Player that is currently not going\n  function getInactivePlayer(uint gameId) constant internal returns(address){\n    BoardPiece player = games[gameId].whoseTurn;\n\n    if (player == BoardPiece.RED) {\n      return games[gameId].playerTwoBlack;\n    } else if (player == BoardPiece.BLACK) {\n      return games[gameId].playerOneRed;\n    } else {\n      revert();\n    }\n  }\n\n  //Increment the game ID and return it\n  function createUniqueId() private returns(uint) {\n    return nextID++;\n  }\n\n  //Helper function for game creation\n  function createNewGameEntry(uint gameId) private{\n    games[gameId].bid = msg.value;\n    games[gameId].playerOneRed = msg.sender;\n    logGameCreated(gameId, false);\n  }\n\n  //Helper function for game end\n  function gameEnd(uint gameId, address winner) private {\n    games[gameId].gameOver = true;\n    uint256 payout = games[gameId].bid * 2;\n\n    asyncSend(winner, payout);\n\n    logGameEnd(gameId, winner);\n  }\n\n}\n",
  "sourcePath": "/home/dmelcer9/ethdev/c4/contracts/ConnectFour.sol",
  "compiler": {
    "name": "solc",
    "version": "0.4.18+commit.9cf6e910.Emscripten.clang"
  },
  "schemaVersion": "1.0.1",
  "updatedAt": "2017-12-31T22:11:19.779Z"
}